:20000000983E00201D97000001CA011001CA011001CA011001CA011001CA011001CA01100E
:1C00200001CA011001CA011001CA011001CA011001CA011001CA01103FCA011082
:200100003C000000000000000000000034010000000000000000000001000000000000006D
:1C01200000000000000000000000000001000000000000000800000000000000BA
:20013C00340000000000000000000000680100000000000000000000010000000000000005
:14015C00010000000000000000000000080000000000000086
:2001700030000000000000000000000098010000040000000000000001000000FFFFFFFFA5
:10019000FF00000001000000080000000000000057
:2001A0002C0000000000000000000000C4010000040000000000000001000000FFFFFFFF4D
:0C01C000FFFFFFFF08000000000000002F
:2001CC0034050000E401000099A1011095A70110A5C2011009B2011045B80110000000000B
:0801EC00000000002F000000DC
:2001F400280000000000000000000000140200000000000000000000FFFFFFFF00000000B1
:080214000800000000000000DA
:20021C00300500003002000069C201106DC101101FC2011095BA011000000000000000008E
:04023C002D00000091
:20024000300500005402000075C20110A9B601109DBF011049B601100000000000000000DE
:040260002E0000006C
:200264002400000000000000000000008002000000000000000000000000000008000000CC
:040284000000000076
:20028800240000000000000000000000A40200000000000000000000000000000800000084
:0402A8000000000052
:2002AC00240000000000000000000000C8020000000000000100000000000000080000003B
:0402CC00000000002E
:2002D00000000000080D002004000000000000000000000020000000700100003000000014
:2002F0001C020000100D00200400000000000000000000000C000000300400001800000037
:2003100040020000180D0020040000000000000000000000240000004804000018000000BA
:2003300000000000200D002004000000000000000000000010000000A00100002C0000007F
:20035000CC010000280D0020040000000000000000000000200000006402000024000000BD
:20037000FFFFFFFF300D00200400000000000000000000002800000088020000240000003A
:20039000FFFFFFFF380D0020040000000000000000000000580000003C010000340000001F
:2003B000FFFFFFFF400D002004000000000000000000000010000000600400001800000034
:2003D000FFFFFFFF480D00200400000000000000000000001C000000AC02000024000000AA
:2003F000FFFFFFFF500D002004000000000000000000000038000000F4010000280000001B
:20041000FFFFFFFF580D002004000000000000000000000054000000000100003C000000B6
:1804300018000000000000000000000040040000080000000000000050
:1804480018000000000000000000000058040000080000000000000020
:18046000180000000000000000000000700400000800000000000000F0
:08047800010000009CC400001B
:040484000100000073
:0404880000000E0062
:04048C0000000F005D
:040490003200000036
:040494000100000063
:04049800400C0020F4
:04049C00000200005A
:0404A0000000000058
:0404A40001CA011078
:0404A8000000000050
:0404AC00000000004C
:0404B0000800000040
:0404B4000000230021
:0404B800980900207F
:0404BC00010000003B
:0404C000580C0020B4
:0404C400080000002C
:0404C8000000000030
:0404CC00000000002C
:0404D0000000000028
:0404D4000000000024
:0404D8000000000020
:0404DC00010000001B
:0404E000300A0020BE
:0404E400060000000E
:0404E800010000000F
:0404EC0004090020DF
:0404F0000000000008
:0404F4000000000004
:0404F80000020000FE
:0404FC0000000000FC
:020502002900CE
:020504000100F4
:020506002500CE
:020508002D00C4
:02050A002E00C1
:02050C002F00BE
:02050E000100EA
:0105100001E9
:08051400030000004CC40000CC
:08051C000000000000000000D7
:0405240000000100D2
:0405280000000300CC
:04052C0087C401106F
:04053000380500008A
:040534003805000086
:0405380000000000BF
:04053C00900000002B
:040540009000000027
:0405440000000000B3
:04054800580C00202B
:04054C00EFB9000003
:040550002000000087
:04055400D4C300000C
:0405580010C30000CC
:04055C000DC30110BA
:04056000679F000091
:040564009FA4000050
:0405680099C801101D
:04056C009BC8011017
:040570000000000087
:04057400EFC00000D4
:0405780054C2000069
:04057C006CC200004D
:040580003CC2000079
:0205840008006D
:0205860009006A
:02058800010070
:02058A0000006F
:01058C00016D
:040590000000000067
:040594000000000063
:04059800000000005F
:04059C00000000005B
:0405A0006DBE00002C
:0405A4008D9E000028
:0405A80019B0000086
:0405AC00A9A2000000
:0405B0003DA4000066
:0405B400B1A60000EC
:0405B800797D000049
:0405BC0011BC00006E
:0405C0009D89000011
:0405C40011C8011049
:0405C80021C8011035
:0405CC000800000023
:0405D0002400000003
:0405D400180000000B
:0405D80028000000F7
:0405DC0020000000FB
:0405E0003C000000DB
:0405E4000C00000007
:0405E80034000000DB
:2005EC002DE9F843089C582B804617460CBFBEA5C2A5002908BFB8F1000F05D12068411E5A
:20060C002160302707702AE04FEAE7793E460246083E13D0083E0DD0002908BFB2F1FF3FF3
:20062C0004D94B463A4603F00BF80BE0B2FBF7F0002107E008071209090902E04807D208FC
:20064C00C9081043226800FB1783561E0029EB5C26608046137008BFB8F1000FD6D12068EA
:20066C000BF094F9401EBDE8F8837CB51446002806460D460094B8BF404264230A22C117FE
:20068C00FFF7AEFF702D0BD0502D09D00A2E09DA16F10A0F04DD2068411E21603023037093
:2006AC00002E01D42B2100E02D212068421E226001702068411E216005707CBDF8B51D46B0
:2006CC0017460E4604460BF061F9324603460021002A284603DD9342A4BFA118491E27B134
:2006EC0005686E1E06602E272F70934208DAD71A30251A4603685E1E06607F1E1D70F9D1FD
:20070C00002A0CDD8C420FD80F1B7F1C026811F80139541E04607F1E1370F7D1F8BD0168B7
:20072C004A1E026030270F70F8BD2DE9F04F04461646B068ADF16C0D0028199302D003D5B0
:20074C00062000E00120B060884630210FF2083B8DF800109BE80C00471C2046414606F089
:20076C002DFFA14638BF88F00048002412E0302008705AE09AE80C0005F0A0F9641E88461F
:20078C00814611E09AE80C00484604F0FFFA641C88468146CAA20CCA414606F052FF0FF266
:2007AC00183AEFD300201A909BE80C00484606F005FF09D01A9DC4A20CCA484606F0FEFEEC
:2007CC0038BF0125002DD5D1484608F0AFFE83460DF1010108F05EFB0DEB000524188742CE
:2007EC0005F1010519DD3F1A584609F0B9FF0B4602464146484603F0A3FC9AE80C0005F090
:20080C005DF98846814608F091FE83460BF130007F1E05F8010BE7D102E00DEB07056D1C98
:20082C0015F8010D35280ADB294611F8010D401CC2B23A2A08709ADA6F468F4204D01A989D
:20084C000DF10107287003E01A98641C05F8010C14F1030F08DBB068A04214DA022C03DBE1
:20086C001A98641E001905E0002C05DC1A98C4F10104001B1A900124307B199A801EC1B268
:20088C001A98FFF7F2FE38460BF080F80025401E844219DC021B521C002803D4395C30290D
:2008AC0001D004E0302115B933681B0908D3DDF864C0DCF800305D1ECCF800500125197083
:2008CC00521EA0F10100E7D13068002200F00800284318BF0122199B21463846FFF7EEFEC0
:2008EC001BB0BDE8F08FC0463031323334353637383941424344454600C046C030313233C9
:20090C0034353637383961626364656600C02DE9FE4F0D99441C9946924601900FF2381B6A
:20092C0000940C9F029130210170194610469BE80C0006F043FE38BF89F00049002512E0CC
:20094C003020087054E098E80C0005F0B7F86D1E8946824610E098E80C00504604F016FA27
:20096C006D1C8946824656A20CCA494606F069FE0FF24418EFD37F1C9BE80C00504606F0BC
:20098C001DFE0AD050A20CCA504606F017FE4FF0000638BF0126002ED5D1504608F0C6FD65
:2009AC000646214608F076FA2418291802987F19002F016017DD304609F0D2FE0B46024605
:2009CC004946504603F0BCFB98E80C0005F076F88946824608F0AAFD064606F130007F1E07
:2009EC0004F8010BE7D114F8010D352810DB214611F8010D401CC2B23A2A0870A0DA01988C
:200A0C00884205D10299019A08680092401C0860002100982170BDE8FE8FF8B51D46174645
:200A2C000E4604460AF0B2FF3A4631462B468918491E521E0FD4521C002903D48842C8BFDF
:200A4C00665C00DC30261D686F1E521E1F60A1F101012E70F0D1F8BD0000000000000000ED
:200A6C00F0B51546AF681C460246ADF5FE7D002FADF1100D44BF0627AF60266802A8009794
:200A8C000B46019003A8FFF742FFAA68029923460746FFF7C2FF20680122B04203D128686B
:200AAC00000938BF0022029938462346FFF706FE7FB004B0F0BDC046000000000000244092
:200ACC000000C0FFFFFFDF41000000000000F03F2DE9F0471646B4689A4688460746ADF1A0
:200AEC00700D002C44BF0624B4600FF2E82999E80C0006F0A6FD4FF000050DD90FF2DC2998
:200B0C0099E80C00384606F059FD05D9B5A20CCA06F054FD12D11FE099E880010EE099E8CD
:200B2C000C00384604F032F96D1C07460FE099E80C0004F0C3FF6D1E88460746ABA20CCA2F
:200B4C004146384606F03AFD0FF2A829EFD399E80C0006F076FDE2D9009402A80B463A4603
:200B6C00019003A8FFF7D3FE04460298022809D1401E029020460AF009FF6D1C0021001963
:200B8C0000F8011C317B28465246FFF76EFDB268029920465346FFF740FF20460AF0F6FEE4
:200BAC0002990122884203D13068000938BF002220465346FFF782FD1CB0BDE8F0872DE9A1
:200BCC00F04F074616460020ADF17C0D1B9381A4009094E80C00384606F033FD88460FF27C
:200BEC0004290CD97DA494E80C00384606F0E6FC05D999E80C0006F0E1FC02D109E094E862
:200C0C008001414638466A4607F094FE0098401E0090307BB5680024A0F14101B5F1FF3FE0
:200C2C001D9108BF0124A24641280CBF754876481E9030208DF8080099E80C00414638465A
:200C4C0006F0BCFC38BF88F0004899E80C00414606F0B4FC0CD0384601AA07F06BFE019A69
:200C6C0041463846C2F1010205F00AFB88460746384608F05BFC83460DF1090108F00AF9FF
:200C8C000446584609F06CFD0B4602464146384603F056FA0FF2641B0DEB04021C940746A2
:200CAC00BAF1000F02F1090453D16D1C15D09BE80C0004F003FF8846814608F037FC1E99E0
:200CCC00095C04F8011B09F04BFD0B4602464146484603F035FA6D1EE9D11D9F641E002FC8
:200CEC0014BF494D474D217828460AF0E7FD401B082833DB27464FF000081D987F1E00283F
:200D0C0014BF414D3F4D397828460AF0D7FD401B401C1028B4BF295C3021102839701DDBDC
:200D2C0087F80080E9E79BE80C00384604F0C6FE0D46074608F0FAFB1E99095C04F8011B52
:200D4C0009F00EFD0B4602462946384603F0F8F9074699E80C0006F031FCE4D10025307B97
:200D6C002570412814BF702150211B9A0098FFF77CFCB068B0F1FF3F05D10DF109000AF00B
:200D8C0005FE401EB0601C991B9B0DF1090402462046FFF742FE3168B0682A4601F0080161
:200DAC00084318BF01221C991B9B2046FFF786FC307B412814BF782158211B980268531E12
:200DCC0003601170016830274A1E02601FB00F70BDE8F08F000000000000F07F00000000B8
:200DEC000000F0FF0000000000000000000000000000F03F00000000000024400000000065
:200E0C0000003040F4080000080900002DE9F04F0646ADF5FE7DADF1680DA29835688D9084
:200E2C003068984617468B460AF0B0FD0146CDF8308228468B974919002581428E9140F272
:200E4C004B84899594952C468A942F469597BB49979196914FF0FF330393899901910F46DC
:200E6C008DF810703C4602940778252F08BF271C0FD0002F00F0308431688C9A491C316005
:200E8C0000788B999047306807786D1C252FF0D1019F31685C46491C316011E047F010070E
:200EAC000AE047F0010707E047F0020704E047F0080701E047F0040701973068401C30606D
:200ECC0030680178B1F12000F4D0C01EEFD00838EAD0801EE5D0C01EE0D02A291CD095998A
:200EEC0086A80A2206F06DFD3068017830290BDB86AA3A2908DA0146401C3060097802F8B9
:200F0C00011B01783029F4DA9DF81872AFB186A808F09EF9029010E0E41C24F00304241DEF
:200F2C0054F8041C002903D547F001070197494202913168A346491C3160306801782E2963
:200F4C0031D1401C306000782A2820D0959986A80A2206F036FD3068017830290BDB86AAAC
:200F6C003A2908DA0146401C3060097802F8011B01783029F4DA9DF81872002F08BF8A987F
:200F8C0002D086A808F064F90146306809E03068E41C24F00304401C241D54F8041C3060DC
:200FAC00A34603910178019F4C391FD01C3911D0091F21D13068401C306001786C2903D066
:200FCC0047F04007019717E0306847F48077401C3060F7E73068401C30600178682918BFFF
:200FEC0047F02007EED147F4007701E047F0800701973068401C30603168491C3160007854
:20100C006E288DF8100000F03583732800F0E7820DF21520DDF80880059020214FF4FF72E2
:20102C0006A806F0CEFC05988A9901700F46909791910DF5057C92910DEB0803939103F1A6
:20104C001800CDF814C09DF810708F90642F15DC642F23D0B7F1250000F0B6821C3800F05C
:20106C000E81001F022840F20A81133816D0093800F00581801E00F0F78174E1A7F165008F
:20108C00022840F2FC80001F08D0801F012805D9801F18BFB0F1030040F0658103990029DA
:2010AC0004D4019820F01000019002E0012003900146B7F1580007D0173807D0401E03D0F7
:2010CC00083818BF0A2202D1102200E00822702F79D0DDF854920198CA4600F4EC602038CE
:2010EC0053D0203843D0C0382AD0B0F580700DD0B7F1580067D00C385CD0401F5AD0801F23
:20110C0061D0801F5FD0C01E5DD066E0B7F158000AD00C384ED0401F4CD0801F04D0801FAA
:20112C0018BFB0F1030058D1E41C24F00304241D14F8049C4FF0000A4EE0C046FFFF0F006D
:20114C00B7F158000AD00C3808D0401F06D0801F04D0801F18BFB0F103003ED1E41D24F0A7
:20116C0007040834A4F1080090E8000634E0B7F1580028D00C381DD0401F1BD0801F22D0E9
:20118C00801F20D0C01E28D11DE0B7F158000AD00C380FD0401F0DD0801F04D0801F18BFBE
:2011AC00B0F1030019D1E41C24F00304241D34F8040C0EE0E41C24F00304241D54F8040C57
:2011CC004FEAE07A07E0E41C24F00304241D54F8040C4FF0000A8146A346CB1748465446CE
:2011EC000143234308BF002903D101990B09C0F05181642F18BF692F08D1002C06DA01233A
:20120C0040424FF00001919361EB040405A900913B462146FFF7E4F90399401C814227DAD2
:20122C009DF81070782F03D0582F18BF702F11D1019908090FD3702F08BF7827059807708E
:20124C000598401E05903021017005989DF81070401E059001996F2F40F01C810809C0F0C5
:20126C00198105984278302A00F014813021F6E0059930220A700599491E0591CCE7384635
:20128C00A0F16101192998BF2038DDF85482B84208BF4FF00108E01D20F007000830834695
:2012AC00083803C847F6F07347F6F07E03EA11439E4510D1969C0A46002312001343002298
:2012CC001C4040EA02024FF0FF3303EA020208BF002A40F0A780949C002C40F0A380734666
:2012EC000FF2C02C03EA11439E450FD1979C0A4600231200134300221C4040EA02024FF0F8
:20130C00FF3303EA020208BF002A33D0959C002C30D19CE80C0006F051F903D2012281F013
:20132C0000419292B7F141021FD0121F15D0521E0ED0521E07D01A3A17D0121F0DD0521EFE
:20134C0006D0521E0FD101AA05ABFFF7EEF908E001AA05ABFFF784FB03E001AA05ABFFF737
:20136C00B7FB9DF81070019994E001AA05ABFFF726FC2CE09CE80C0006F020F929D3B8F1C9
:20138C00000F14BF4621662105988DF81412B8F1000FA0F10100059014BF4E216E21017008
:2013AC000599B8F1000FA0F10100A1F10101059114BF49216921017005992B27491E0591EA
:2013CC00032400F8017C05989294401E059001995EE0B8F1000F14BF4621662105988DF83C
:2013EC001412B8F1000FA0F10100059014BF4E216E2101700599B8F1000FA0F10100A1F120
:20140C000101059114BF49216921017005992D27491E0591042400F8017C0199DDF814C021
:20142C00929432E0B8F1000F14BF4E216E2160468DF81412401EB8F1000F059014BF4121AE
:20144C00612101700599B8F1000FA0F10100A1F10101059114BF4E216E21022292920170F1
:20146C000598401E05907CE7E41C24F00304241D14F8043C0F46A34603B901278DF81432D8
:20148C000199939721F0020101916046401E05909DF810700598752F00F101022AD06F2F5B
:2014AC0028D0782F26D0582F24D0702F22D0929F1FB17F1E1ED10123919301F00203919F84
:2014CC0090931FB98B0808D32B2100E02D21017005980199521E401E0590909C274309D1A2
:2014EC00C80807D305982021017005980199521E401E059048080ED2059C0298ADEB040145
:20150C0001F21521884206DB8F9F06A8241AE419A4F5FE7400E006AC1146959A20464FF408
:20152C00FF730AF025F8939F059027B18A9901700598401C05908F99814209D30A46121A12
:20154C002021401E521C06F03CFA8F988A990170019840092AD306A8A0422ED006A8221A34
:20156C00302106A806F02DFA9DF81000782810D058280ED070280CD0909F9198074302D1D7
:20158C000198C00819D320788DF818003027277013E00198000910D360788DF8190030278A
:2015AC0067700AE0000000000000000006A8241A2021224606A806F004FA06A80AF0E6F9A0
:2015CC00939F0246D21904E046A00188012206AF39808D9B8B9906A898472D1877E0E01C45
:2015EC00039C20F00300001D50F8048C8346B8F1000F3AD0DDF80890002C06D440460AF0BA
:20160C00C5F9A04288BF201C02D840460AF0BEF904464C45A8BF81464D44A1450BDD7808A2
:20162C0009D2A9EB0407002F05DD8C9A8B99202090477F1EF9D1002C07DD274618F8010BB2
:20164C008C9A8B9990477F1EF8D10198A1453EDD40083CD3A9EB0407002F38DD8C9A8B99D9
:20166C00202090477F1EF9D131E08C9A95988B9990472CE007F4EC67B7F120001FD0E03858
:20168C0012D0B0F5807007D0E41C24F00304241D54F8040C056019E0E41C24F00304241D7E
:2016AC0054F8040C057011E0E41C24F00304241D54F8042C2846E91782E8030006E0E41CC3
:2016CC0024F00304241D54F8040C0580A34630688E9981423FF6BEAB7FB028461AB0BDE8AC
:2016EC00F08FC04625007047AF48B0492DE9F04FADF1C40D0E900A78500000EBC2004A78EA
:20170C008018A0F5047A887800272C2840F0448448792C2840F04084BAF1630F00F23C84C7
:20172C00CA78500000EBC2000A798018A0F50470632800F23184A24CAD4DAE4BAE4AAF4E32
:20174C00C0B20FF29C290FF2A0280A38232808D92A38AFA400F07881401E56D0C01F26D017
:20176C006BE1DFE810F02F016A016A016A01F7036A01BB036F035A0335030801ED00D100E8
:20178C001D030703E902940285026A016A015D022D020D020302F701ED01E601D601CF011F
:2017AC00C801BE00AD019A018C019E00720028460078062801D0072821D11E68C6B18E79A6
:2017CC00002E4DD0BC4C1F60891DFA22204608F0A9FB3846B94984F800010878401C087016
:2017EC0049460FA80A684968026058244160CCE30FA8BCA1112205F0EDFA5224C5E30FA84E
:20180C0011460AF066F85124C0E32878062801D007286BD140F215302FA902F0D7FA9DF844
:20182C00BE0000909DF8BF009DF8BC2001909DF8C0009DF8BD3002909DF8C100214603903F
:20184C000FA806F0A7FE58249FE32878062802D0072840F0EC80BE480668DEB18E793EB9C0
:20186C00C0A10FA80A6849680260592441608CE3C24C0760891D2222204608F053FB3846A9
:20188C00494684F822000FA80A6849680260582441607AE30FA8BEA12B2205F09BFA5224F6
:2018AC0073E38879302815DB3A2813DACA79302A10DB3A2A0EDA410001EBC000801810388D
:2018CC00C2B2BE48C2A1134602700FA806F062FE58245AE30FA8C6A1292205F07BFA59243E
:2018EC0053E32878062807D0072805D00FA8114609F0EFFF512448E3C84800788DF83C001F
:20190C0058248DF83D7040E38879420002EBC002C879C7A11218A2F504720FA8144606F011
:20192C0039FE202C07D30FA8C7A12246202306F031FE592429E3E0B206F08CFE582424E331
:20194C004FF442700FA902F041FA9DF83C00401EC2B2161C0BD0142E09DC0FA80DF13E01D6
:20196C0005F038FA0DEB060080F83C7001E08DF83C70582409E38C1D20460AF007F8142854
:20198C0016D8204607F0DAFA30B90FA8C4A12B2205F020FA5924F8E20FA8CCA1224606F0E2
:2019AC00F9FD5824F1E2C046AE47813F902100200FA8D1A1142206F0EDFD5924E5E2C046C1
:2019CC00005A62022878062801D007282FD11868B0B90FA8D0A11F2205F0FCF95224D4E207
:2019EC00557064617465640072C45A7C0A00F03FEA370020880C002018C400009C0D002035
:201A0C000FA8D5A11B2205F0E5F95324BDE2C046253032783A253032783A253032783A2591
:201A2C003032783A253032783A25303278000FA8114609F04EFF5124A7E20FA8D2A1172299
:201A4C0005F0C8F95F24A0E24FF441702FA902F0BDF99DF8BE0000909DF8BF009DF8BC20A3
:201A6C0001909DF8C0009DF8BD3002909DF8C100214603900FA806F08DFD582485E2D24CD8
:201A8C00891D0E22204608F04DFA0FA8D7A1A773224606F07FFD582477E2CC4C891D0922DE
:201AAC00204608F03FFA0FA8D6A16772224606F071FD582469E2C046A8070020E6370020D7
:201ACC00891D0846028831460A8080788870D848F770032207700FA808F024FA58248DF89A
:201AEC003F7052E2436C69656E74206E6F7420726561647900C0CF490FA8062208F048FA01
:201B0C00044642E2CC490FA82A2208F041FA04463BE2891D0846028831460A80807888702A
:201B2C0003220FA8F77008F0FDF958248DF83F702BE20FA83146032208F02AFA044624E2EC
:201B4C00BE490FA8202208F023FA04461DE2C0468C0C0020BA490FA8282208F019FA044604
:201B6C0013E2C0464E6F204461746100D6490FA8402208F00DFA044607E2C046640B002008
:201B8C00D2490FA8202208F003FA0446FDE1C0464E6F742055706461746564202D206C61B0
:201BAC0073742076616C7565206E6F74207069636B65642075702079657400C0550B00203D
:201BCC00C3490FA8022208F0E3F90446DDE1C046535220436F756E742073657420746F20D3
:201BEC002530326420283D78253032782900C046496E76616C69642041736369692042434E
:201C0C0044206E756D626572202D206D7573742062652030302D393900C046C0E43700208E
:201C2C00AC490FA8362208F0B3F90446ADE1C046496E6372656D656E74204576656E74202B
:201C4C002530326400C046C043616E6E6F7420496E6372656D656E74204576656E74202538
:201C6C003032643A206174204D61782825642900994803680A21B3FBF1F2B3FBF1F0484321
:201C8C00AEA11B1A0FA806F085FC58247DE1B0490FA8102208F046F958248DF84C7074E181
:201CAC00446576696365204E616D6520536574204661696C202D2050726576696F75736C09
:201CCC007920536574207365743F00C0446576696365204E616D6520536574202D20546169
:201CEC006B657320656666656374206E65787420726573657400C046446576696365204E22
:201D0C00616D65204D757374206265203C3D20256420627974657300436F6E6E656374651C
:201D2C0064202D204E6F7420526561647920466F72204461746100C0A34800680090A34811
:201D4C009F4A00689F4B019012681B68A4A10FA806F020FC582418E1436F6E6E65637465FC
:201D6C0064202D20526561647920666F72204461746100C009F042FE0FA8A5A10D2205F076
:201D8C0029F8582401E1C046436F6D6D616E64204E6F74205265636F676E697A656400C0B8
:201DAC008A79C979500000EBC2004018A0F504700446C0B208F0E0FF034699A122460FA83F
:201DCC0006F0E8FB5824E0E01C3700203837002081487F4A00687F4B009012681B6896A158
:201DEC000FA806F0D7FB5824CFE0C04653657269616C204E756D626572205365743A202573
:201E0C007300C046576946692056657273696F6E205365743A20257300C0704B1B68224624
:201E2C000FA894A1D20806F0B5FB5824ADE0C046E73700206F0D0020C00A0020870B0020A5
:201E4C00EB0A002002F0A0F8E348006807F0FCFF8046E3480068894607F0F6FF8346E2484B
:201E6C0000680E4607F0F0FF0446E14800680D4607F0EAFFD94A8DE8000312684FF4966C4C
:201E8C000DF1100E02923346CDF80CC05A468EE80C00D44A126806924FF47A72079208AAB0
:201EAC0082E83000D14A12680A92CA4BCDF82CC00CAA82E80300C64A1B6812680FA878A185
:201ECC0006F068FB582460E084320020E834002090370020C8320020AC3700200FA888A1EB
:201EEC00524606F057FB0FA807F0A0F83D460E9807F0AAFF98E80C0003F0E0FD06F050F84D
:201F0C006D1C0E90AC42F2DC0FA88DA1524606F041FB0FA807F08AF83D4642F210740E9812
:201F2C0007F092FF98E80C0003F0C8FD06F038F86D1C0E90AC42F2DC24E0C046424C4520C3
:201F4C00435055205265762025642E256400C046700C00200FA88DA1524606F01BFB0FA8FE
:201F6C0007F064F83D4642F210740E9807F06CFF98E80C0003F0A2FD06F012F86D1C0E907A
:201F8C00AC42F2DC9B48006880472FB9214650460FAA05F0B9F90CE0BAF1640F86A204D319
:201FAC006320602105F0B0F903E05046602105F0ABF99149012031B00860BDE8F08FC04672
:201FCC00B037002098370020A8370020C4370020B8370020A0370020D8370020C037002099
:201FEC00436F64653A2530387820204150503A253038782020424C4520537461636B3A2533
:20200C0030387820204E56443A2530387800C046436C656172204576656E747300C046C025
:20202C004576656E74202530326420436F756E74203D202530326400436F756E74657273A3
:20204C003A2020476170204576656E74733A2025642020417070204576656E74733A2025F5
:20206C0064202055617274204576656E74733A256400C0465761746368646F6720496E6648
:20208C006F3A204C6F61642056616C75653A20256420204C6F77204D61726B3A256400C04B
:2020AC00537461636B20496E666F202D2053797374656D3A25642F25642825362E32662597
:2020CC00252920204761703A25642F25642825362E326625252920204170703A25642F259F
:2020EC00642825362E32662525292020554152543A25642F25642825362E32662525290001
:20210C00253032642C39392C2A2A2A20464F5243494E472041205761746368646F67205432
:20212C00726967676572206261636B20746F20426F6F746C6F61646572202A2A2A00C04690
:20214C00253032642C39392C2A2A2A205761746368646F672054726967676572204641490B
:20216C004C555245202D204D616E75616C6C7920726573657474696E6720746F20426F6F33
:20218C00746C6F61646572202A2A2A00253032642C39392C202A2A2A205265736574746957
:2021AC006E672074686520424C4520426F617264202A2A2A00C046C0436F6D6D616E64209F
:2021CC00466F726D6174204572726F7200C046C0D4370020CC37002088370020140B00202E
:2021EC00180B0020200B0020240B00202C0B0020300B002060000010840C00202DE9FE4FC1
:20220C000446BA4AB84BA0781178DFF8E882DFF8F09258541178491C117011780025002835
:20222C0001F01F01117000F06D81DFF8C4B2DFF8CCC2801E00F03081DFF8BCE2401E012835
:20224C0040F2F380DFF800C3DFF80093C04FDFF804A3801E00F0B080401E7FD0401E5CD047
:20226C00083800F07981801E40F07A81A0886646ADF800003078052849D001208DF80A0048
:20228C00BD4809F0E9FD307801281FD004281DD003280ED002280CD0E088ADF802002089AE
:2022AC00ADF804006089ADF80600A089ADF808002FE07088ADF80200B088ADF80400F088F8
:2022CC00ADF806003089ADF8080022E0AB49E0880A88824200DD0888ADF80200A84920897F
:2022EC000A88824200DD0888ADF80400A54960890A88824200DD0888ADF80600A249A0890D
:20230C000A88824200DD0888ADF8080001E08DF80A50684609F092FB22E19C4809F09CFDD4
:20232C006078002840F01C81E088A9F800002089974E3880608930808F4809F0C7FB002822
:20234C0040F00E8193480468002C00F009812368B9F8000039883288984701E1A08808F02D
:20236C00CAFB8D482946062205F02BFB3D8048460580874889490580A07908707E4809F0BF
:20238C006BFD824809F068FD4FF6FF715046018059460878012558B9A079082801D105213E
:2023AC0000E0042140460170284609F003FAD7E0032140460170D3E0667866BB201D764931
:2023CC0002680A6080888880618950460180404606210170E18948460180208A38806C485F
:2023EC00618A01806E49E078664608703078012801D0022808D11F2007F0AEFA4FF47A7181
:20240C0041435D4807F0E2FEE0786289211D042307F0C2F9A6E06078312840F090807146A8
:20242C0040460D70042101709CE06778002F40F08680A07803281FD05A48078847B971461D
:20244C000878012802D059460D700BE00D7009E071460A7859460F78174303D001886046CD
:20246C0007F0B4FE40460178072902D00421017078E00621017075E040460178062908D0C5
:20248C0071460F7817B9032101706BE00221017068E00721017065E06778002F4FD1E778FB
:2024AC00B7B94046017802291BD0072919D0062903D159460978012913D10078032810D0BE
:2024CC00604609F003FB60B9012009F073F908E035494846354B0A780078294606F04EFF94
:2024EC006070607858BB3BE0B4350020E5370020270C0020DC360020260C00205834002032
:20250C00D43600206078D0B9294A0220102107F07FFC284A0320102107F07AFCE41C26484B
:20252C0021680160A188818001214046234A244B017048461278007806F020FF90B1082177
:20254C00404601700EE0C046C40C00202E0C0020300C00202C0C0020A088052109F066FBDE
:20256C00012D07D11748006820B1016811B1404600788847BDE8FE8F7C340020C60C0020C5
:20258C00C80C0020CA0C0020CC0C0020A0340020320C00203C0C00207C0D0020350C002089
:2025AC00340C0020280C00202B0C0020E70B0020FC3600200C370020443700202A0C00204C
:2025CC00C80B0020380C00202DE9FE4FDFF810A30F460646F80B80F05E81B80880F0EA801E
:2025EC00DFF80483DFF82493DFF828B3B80F7BD2BC48017801295BD038095BD30024404632
:20260C000470BA4801260670204601F074FEB84809F000FBB849B748224609F00EFCB74874
:20262C00BD4D03787BB3B649097801292BD0B54E306810B309F064F949460968401A020B1B
:20264C00B148B34902600868801808603268B0EBC21F12D30C60584640F609010180417B25
:20266C0001F0F00141F0010141734480017B01F0F00101734460286017E0A8484FF000514C
:20268C0009F0D8F811E0067040F6090158460180417B01F0F00141F0010141734480017BDA
:2026AC0001F0F00101734460286027F008070FE1390914D2B80BC0F00B815046001D09F0A3
:2026CC00C7FB041C08D0606830B1E068B4F91C10646800222023A04727F40057F8E00021E7
:2026EC0027F008070170F3E04C46206808B3042008F096FEE8B109F003F98949086022688D
:20270C00824204D222680868801A000B02E0801A401E000BF060F06800F58D70F060F1684C
:20272C0040F6C410884203D340F2EE228A4200D9F06000252560B4698CB158460D30007855
:20274C0010F00F0F0BD1708C40F60901814206D130466FF480712A464FF00073A04765481D
:20276C0070492A4609F069FB654C207850B10220ADF80000684608F01DFDBDF808006A4986
:20278C000880257001214046017068490878401C087067482C460470192009F09FF97569B5
:2027AC002DB1214630464FF080630A46A84727F000578DE0DFF87C81404609F049FB041C5F
:2027CC0060D007F087FF0026A269A6616068D8B1E07F42F00202002300F00700401E0BD0CF
:2027EC00401E05D0801E0AD132464FF0805306E032464FF0804302E032464FF0005365687E
:20280C00E068B4F91C10A84709F0E6FB55468146B5F91200401C6FF31F306882E8681F300A
:20282C00017801F07F010170404608F06FFF484609F0CEFBE068B0F99410B5F912209142AD
:20284C0020D13D49097801291CD090F896509DB905688DB1394909680968B1F1FF3F11D0CA
:20286C00374909687030B5FBF1F109F0ADFBE068703009F0A5FB05E0E168304681F8960054
:20288C0005F036FD404609F0E3FA27F00207F8B147F002071CE009F09FFB014650460830FB
:2028AC0009F0D6FA0446A569084609F091FBA8080CD25CB1A069A843A061606830B1E06897
:2028CC00B4F91C1064682A460023A04727F480471FB11248394608F0ADFFBDE8FE8FC04666
:2028EC0084360020C5330020A0330020C3330020057D00004C36002089AF0000C033002062
:20290C00C1330020BC330020B4330020AC330020B8330020AC36002000100440343300209A
:20292C00B03300204D52000090350020A9330020C233002090360020060C00209C330020EC
:20294C0094C40000B8492DE9F0410868ADF1400D401C10F0030F08601AD1B54EB34FB548AD
:20296C0031683A68914201D101210160B34CB24D21682A68914202D0006810B904E00121F3
:20298C000160AF4800688047386830602868206001F0FAFAAB4CAD4E9E492268104605F0D1
:2029AC00C9FD0FF254180ED2A74D286858B9104607F04AFA02460B466846414605F0EAFD28
:2029CC000120286030602268934D1046294605F0B1FD0ED29E4F386858B9104607F034FAE7
:2029EC0002460B46684650A105F0D4FD01203860306022688949104605F09CFD0ED2954F80
:202A0C00386858B9104607F01FFA02460B466846414605F0BFFD012038603060206807F04C
:202A2C0013FA7FA20CCA04F00CFE09D28A4C206830B9684648A105F0ADFD012020603060FF
:202A4C00864802682946104605F074FD11D2844F386870B93446206858B9104607F0F4F93B
:202A6C0002460B4668464AA105F094FD0120386020607C4802682946104605F05BFD11D236
:202A8C00794F386870B93446206858B9104607F0DBF902460B46684648A105F07BFD0120A7
:202AAC0038602060714802682946104605F042FD12D26F4D286878B93446206870B91046F4
:202ACC0007F0C2F902460B46684647A105F062FD01202860206001E0306850B165490868F4
:202AEC00401C0A28086002D2684606F09FFA0020306010B0BDE8F08130302C39392C57417B
:202B0C00524E494E47202D2D2053797374656D20537461636B2055736167652061742025A7
:202B2C00362E326600C046C030302C39392C5741524E494E47202D2D2053797374656D2048
:202B4C0020537461636B2055736167652061742025362E326600C04630302C39392C205365
:202B6C00595354454D20554E535441424C45202D2D2053797374656D2020537461636B20C4
:202B8C00557361676520417420313030252500C030302C39392C5741524E494E47202D2DEA
:202BAC002047617020537461636B2055736167652061742025362E326600C04630302C39A5
:202BCC00392C5741524E494E47202D2D2041707020537461636B2055736167652061742073
:202BEC0025362E326600C04630302C39392C5741524E494E47202D2D205561727420537445
:202C0C0061636B2055736167652061742025362E326600C0000096420000B4420000BE42A0
:202C2C009A99999999F95840A4350020A4370020A8350020EC090020DC370020AC350020BF
:202C4C00600000108837002078370020F00900207C3700208037002074370020180B002079
:202C6C00F4090020240B0020F8090020300B0020FC090020B03500202DE9F04114460E4641
:202C8C00DFF8BCC2AF4DDFF8C082AB4AAB49A0F2013300271A2B00F24881DFE813F03C01E1
:202CAC0034012E0146010401FE00E600CE00C600BE00B500AB00A1004601460198008A0071
:202CCC007C007100630046014601460146014B0046011B00012E40F02081104600780128D8
:202CEC0000F00981084626780178067079B15EB960460078032800F0E880072800F0E5800D
:202D0C00052800F0E28025E1002940F023810678002E00F01F8160460078012800F0E7804B
:202D2C00042800F0E480062800F0E180052800F0DE800FE1012E40F0F0802078012840F05D
:202D4C00EC80864808F0C2FE50B93846294604F0F1FB071C40F0FE80814809F07DF8F9E0BE
:202D6C001627F7E0022E40F0D88020880A28C0F2D480B0F5486F00F3D08008352880E9E04E
:202D8C00022E40F0CA802088B0F5FA7F80F2C580AD1D2880DEE0022E40F0BF80208806285B
:202DAC00C0F2BB80B0F5486F00F3B7802D1D2880D0E0022E40F0B18020880628C0F2AD80AC
:202DCC00B0F5486F00F3A980AD1C2880C2E0012E40F0A3802078062880F29F802870B9E052
:202DEC00012E40F09A802078042880F296805D490870AFE0012E40F090802078082880F2AC
:202E0C008C8059490870A5E0062E40F08680574821680160A18881809CE0012E7DD120784D
:202E2C0004287ADA5249087094E0012E75D12078042872DC4F4908708CE0202E6DDA4E4D4C
:202E4C0039461F22284604F0BCFD21463246284603F0C0FF49480670404600783246394690
:202E6C002B4606F08BFA074674E0202E55DA444D39461F22284604F0A4FD2146324628469B
:202E8C0003F0A8FF3F48067040460078324601212B4606F073FA07465CE0022E3DD12088B4
:202EAC003949088056E0012E37D108460078012821D0104626780178067069B156B96046FD
:202ECC000078022801D0052844D14046007808F0A5FD3FE000293DD10678002E3AD06046E7
:202EEC000078012803D0042801D0052832D1012008F060FC2EE012272CE0042E0DD12068C5
:202F0C002249086026E0102E07D121482146102203F060FF1EE0102E01D018271AE01D48B7
:202F2C002146102203F056FF14E0282801DA022E0CD002270EE0C046260C0020270C0020B7
:202F4C00DC360020C40C0020D4360020218807F005F807463846BDE8F081C046A0340020A1
:202F6C007C340020E7360020E6360020760D0020E5360020E4360020E70B00202B0C00207B
:202F8C00C80B00202A0C0020280C0020E03600200C370020FC360020F0B5ADF15C0D03F0FE
:202FAC0005FB002005F056FB08F098FB8B4908601530C0B205F04EFB89480068800802D34D
:202FCC001E2005F047FB04F07BFF864D2860864808F0B4FC854801260660854801F08CF994
:202FEC0003F046FB4FF08054D4F8D801814F036831460A4638469847D4F8D80142683146B4
:20300C0038469047A36C00204FF470410246984779490860A36C022200204FF470419847B5
:20302C0076490860A36C00224FF470404FF48031984773490860A36C002002464FF4F8315F
:20304C009847704E3060A36C4FF4805100224FF4F83098476C49086006F0DEFD04F026FAA6
:20306C0006F068F906F0F0FC24A0009059A226A001903068654C02900CCA15A1204605F0A3
:20308C0089FA204605F0D2FF2B68172B0DD20A21B3FBF1F0B3FBF1F248431B1A1DA103A84D
:2030AC0005F078FA03A805F0C1FF07F0E3FF18B92DA005F0BBFF02E038A005F0B7FF08F0BA
:2030CC007BFF534800688047002017B0F0BDC04630302C39392C20424C4520566572202557
:2030EC00342E32662020257320202573202043524333323D30782530387800C04A756E20A6
:20310C00323520323031380031363A30313A313500C046C030302C2039392C20424C45208C
:20312C00435055204561726C79207265766973696F6E206465746563746564202825642E8E
:20314C00256429202D20424C45204D65737361676520525820756E6C696B656C7920746F32
:20316C0020776F726B00C04630302C2039392C4E4F5F52454C45415345202A2A2A2A2042E9
:20318C006F6F746C6F61646572206973206E6F7420656E61626C656400C046C030302C2090
:2031AC0039392C426F6F746C6F6164657220697320456E61626C6564202D20416E7920528C
:2031CC00455345542072657475726E7320746865726500C09A9999999999C93FC8370020C9
:2031EC0010210840AC37002029510000FC0C002098C3000000400340983700209C370020E5
:20320C00A8370020B0370020C4370020A02E0020600000102DE9F04F0128ADF1140D40F0B6
:20322C00F280DFF81492D9F8DC00012840F0E9800220C9F8DC0008F0BBFE0290012006F00B
:20324C0051F920B101210646C9F8DC10D5E008F0ABFE03906E484FF00008C0F800800120ED
:20326C0008F0DEF8012818BFCDF8008004D1404605F068FD0120009066486E4CC0F8008029
:20328C001934D4F8FF0F112008F014FD00280CBF46460126102008F00DFD08B146F00206F2
:2032AC000F2008F007FD08B146F004060B2008F001FD30B1584800685849006B02460888F0
:2032CC0090470A2008F0F6FC0028404618BF01204FF0805B0BF5DC7528B128685049006B79
:2032EC000246088890474F480127076028688069014646F0200088474B48076008F0D4FC46
:20330C0000F001010191400815D2484808F02FFC8246BAF1040FF8D0BAF1010F06D1DBF888
:20332C00D801406802464148032190474049086820F003000860404600F080F82868D4F876
:20334C00FF1F806B8047019801280ED0BAF1010F06D1DBF8D80140680246344839469047F1
:20336C003349086840F0030008602A480760286840690146304688470B2008F09BFC28B189
:20338C0028682649C06A0246088890470A2008F091FC28B128682249C06A024608889047ED
:2033AC00204807600322C9F8DC201F4BC3F800802868406B0146304688470128F8D10420CE
:2033CC0006F090F8124807601A48D4F8FF1F01688909FCD30098012802D1384605F0B2FCD7
:2033EC0008F056FC082006F07DF806460398C9F8DC7008F0D5FD05F0B7F9029808F0CCFD26
:20340C0002E0042600E00126304605B0BDE8F08F0C40094000022243B8010010D2C10000E6
:20342C00CEC100002820086080010443004003402422084014100940900500202DE9F84FE9
:20344C0082467A48DFF8D89135380068800880F0D88007F0F1FB054678480830D0F8008003
:20346C0000244FEA2876761C5FEA98500AD2C5F13E0015F10A0F4FEAE000D8BF08208642F3
:20348C00B8BF061C634FD7F87C01C0F3046008F067FB83463868C0F3044008F061FB06EB73
:2034AC000B020090162A05DA12F10A0FB8BF6FF0090200E01522584B584F02F01F0141F49F
:2034CC00F8511980396811F0030F18BF0124C90828BF44F00204BAF1000F18BF44F004048F
:2034EC00494691F90730EB1A052B04DA8B79A34208BF888864D0DFF82CE10F2DA5F10F0C98
:20350C0025DB0CEB0513A3F1F00C4FEA2C27072F88BF07273E46062E88BF06265EF8260022
:20352C00042303EB86037646F3581B1A03F0FF06E00824BFC3F307200644A00824BFC3F37A
:20354C0007400644600828BF06EB136601E0002637465EF827E0E0080EF0FF0324BFCEF3A8
:20356C0007200344A00824BFCEF307400344600828BF03EB1E630098B6B2ACEB07277E43B3
:20358C00801A06F1800603EB1623D8BF0120342208F0FF0742437A43B2FBF3F04FF6FF724D
:2035AC00824238BF101C802D80B2888005DA15F1800FB8BF6FF07F0500E07F25CD718C71A4
:2035CC00194A12681F280A604FF0000208D340F2FF11814206D24008521C8142FBD301E030
:2035EC001F208880124F11490F38000942EAC00247EA0200C1F8FB0F0026C1F8FF6FBDE897
:20360C00F88F0D4F0B4E494608203760891D0870BDE8F88F3C1100506E6208402422084087
:20362C004C3700209C130050082009403500094000E7A48030100940FDFDA400AC3F005080
:20364C002DE9F0411C4615468C4208BF854282BF00230022E5E0002C08BF002D0AD100298F
:20366C000EBF00286FF000006FF0000100F0E1F8BDE8F0815FF000085FF0000E002C08BF04
:20368C008D429CBF2C1C0025070C47EA01470E0CB44208BFBD429EBF5FEA044444EA1544B0
:2036AC005FEA0545070A47EA01670E0AB44208BFBD429EBF5FEA042444EA15645FEA052505
:2036CC00470847EAC1774E08B44208BFBD4200F29380870847EA81778E08B44208BFBD4205
:2036EC007CD8C70847EA4177CE08B44208BFBD4266D8070947EA01770E09B44208BFBD4256
:20370C0050D8470947EAC1674E09B44208BFBD423AD8870947EA81678E09B44208BFBD42AB
:20372C0024D8C70947EA4167CE09B44208BFBD420DD8E60146EA5566EF01B14208BFB842EA
:20374C0001D3C01BB14158EB08085EEB0E0EA60146EA95664FEA8517B14208BFB84201D3D5
:20376C00C01BB14158EB08084EEB0E0E660146EAD5666F01B14208BFB84201D3C01BB14131
:20378C0058EB08084EEB0E0E260146EA15762F01B14208BFB84201D3C01BB14158EB0808BB
:2037AC005EEB0E0EE60046EA5576EF00B14208BFB84201D3C01BB14158EB08084EEB0E0ECB
:2037CC00A60046EA9576AF00B14208BFB84201D3C01BB14158EB08084EEB0E0E660046EABA
:2037EC00D5766F00B14208BFB84201D3C01BB14158EB08085EEB0E0EA14208BFA84201D38E
:20380C00401BA14158EB08085EEB0E0EA34208BFAA423EBF2D0A45EA0465240A89D3734600
:20382C0042461E4617460B46024631463846BDE8F08170472DE9BC4FDFF8B081404608F031
:20384C0007FB14468A46009008F0C6FBDFF8A091032504F001078346BAF1FF3F0FD14146A2
:20386C00486828B9B1F91200401C0FFA80FA03E049460868B0F91CA05E49002008705046F4
:20388C0006F0BEFC002800F0AB8049460968DFF86C91814277D0002800F0A280009FDFF89B
:2038AC0058C1B84231D03FB100990A68904209D0096800290091F7D1832D47D0584608F0F2
:2038CC0087FB43E0604607F009FD00980168A20805D20A68026000200860009102E0002221
:2038EC0002600091009820B9584608F071FB83252CE0C17F41F00401C177684607F006FF4A
:20390C000146484606F0FAF8ECE7604607F0E6FCA00804D2414608680068086002E0002045
:20392C0041460860584608F053FB0099C87F40F00400C877684607F0E9FE0146484606F0FE
:20394C00DDF8009808B1A008EFD283252C482F4A0078012812D02B480078012843D02A481B
:20396C0008F058F90221104607F064FF28480078012838D0274808F04DF934E010460221CC
:20398C0007F058FF2FE0A10804D341460A68009200220A60C27F0121B9401143C17708F047
:2039AC0003FB05460FB11C4800E01C4807F002FC584608F00DFBA00801D3009820B928465C
:2039CC0008F0EEFA83250EE0C17F41F00401C177684607F09BFE0146484606F08FF8ECE754
:2039EC00584608F0F5FA2846BDE8BC8F843600208836002093350020EC3300209036002013
:203A0C00C2330020C3330020D525000034330020A0330020BD6100000100020401000104D0
:203A2C002DE9F84F994692468B46064608F0D4FA634C0090B4F91210B4F910000AAF401AA5
:203A4C0040F6F8710140082905DB009808F0C0FA6FF00100B2E0B4F91000401C6FF31F3063
:203A6C002082B4F9108007F053FA054606F1700007F034FCC5F808B085F81EA0C5F804903D
:203A8C00A5F81C804F48EE6097E80C0020211940104005F1100282E803000027EF772068FD
:203AAC0000286FD12046294606F028F860B9B4F9100000F6FF706FF31F302082009808F089
:203ACC0087FA6FF0010079E0A6F89480E87FDFF8FC9040F08000E8773B4886F89670067890
:203AEC0066B149460E784EB1394A0121117007703848394907700878401C0870009808F095
:203B0C0067FA241D206800283AD149460878012833D032480078012832D008F05DFA009005
:203B2C002F480078012821D0A86805F035F92D49086038B9009808F04BFA2B48042107F00A
:203B4C0079FE1DE02A4800680968C068091A2948264C0068B1FBF0F1204608F035FA204684
:203B6C0008F02EFA009808F033FA09E0224901200870009808F02CFA02E0192007F0AEFFFA
:203B8C0040461BE02046294605F0B8FF50B1A6F89480E87F40F08000E877009808F018FA4C
:203BAC0040460BE0B4F9100000F6FF706FF31F302082009808F00CFA6FF00100BDE8F88FF1
:203BCC0084360020F1EFFF9FC4330020A0330020C5330020C1330020A9330020C23300203A
:203BEC00C3330020BC33002034330020EC3300209C33002094C40000AA3300202DE9F84339
:203C0C00814608F03FF8002100B901216B4E30680028FCD06C4D01242D1DEF6A346009B192
:203C2C0008F036F8DFF89881C7F3072008F1BC01086008F027F8002100B92146306800284B
:203C4C00FCD02F68346009B108F022F8C7F38440C8F8C00008F016F80146002001B920460A
:203C6C00014630680028FCD0ED69346009B108F00FF8C5F38120C8F8D000B9F5C061C8F84A
:203C8C00B81000F0968098F8D80068B9C8F8D410D8F8C000C8F8C800D8F8BC70C8F8C47015
:203CAC00D8F8D060C8F8CC60D8F8D410D8F8BC60002954BF02206FF00100454605F1C80362
:203CCC001A6801EB41014018411000EB917002EBA0021A60D5F8C810C5F8C46000291CDDE2
:203CEC001E293DDDD5F8CC0030B93429B4BF15391E21C5F8C81025E02A29BABFD5F8C8007D
:203D0C000B381E20C5F8C800D5F8C4003F28B4BF401C3F20C5F8C4001FE0D5F8CC00032827
:203D2C0012D011F10B0FC6BFD5F8C8000B30201CC5F8C800D5F8C4000028CCBF401E0020A1
:203D4C00C5F8C400032009E011F1150FC6BFD5F8C8001530201CC5F8C8000020C5F8CC00DB
:203D6C00B5F8C400174E30214FF47F4208230090304605F04BFB009404214FF4003211233E
:203D8C00304605F043FBB5F8C80004214FF4F80212230090304605F039FBB5F8CC00202179
:203DAC004FF440620A230090304605F02FFBBDE8F883002088F8D800BDE8F88300800C403C
:203DCC009005002000A00C4000A00C405B4A5C4B70B50C4601460025A0F540701D2810D8A9
:203DEC00DFE800F097918B87817D79726B67635D5955510F4C48433F3A34302C280F2420E2
:203E0C001C18282901DB022586E0084605F0A4FD208081E04148007820707DE040480078D5
:203E2C00207079E03F480078207075E03E480078207071E03D48008820806DE03C480088C4
:203E4C00208069E03B480088208065E03A48016821608088A0805FE01046801C0088208090
:203E6C005AE010460088208056E01846801C0088208051E01846008820804DE01046801F4D
:203E8C000078208048E02F480088208044E02E480078207040E02D48007820703CE02C4868
:203EAC00016821608088A08036E02A480078207032E02948007820702EE0284A284912784E
:203ECC00204602F087FF27E0264A27491278204602F080FF20E02548008820801CE02448B3
:203EEC000078207018E02348016821608088A08012E02148006820600EE020492046102207
:203F0C0002F068FF08E01E492046102202F062FF02E01C4800782070284670BD350C0020B8
:203F2C00340C0020270C0020DC360020320C0020300C00202E0C00207C0D0020CA0C0020DD
:203F4C00C60C00202C0C0020E7360020E6360020760D0020E5360020E43600202B0C002023
:203F6C00E70B00202A0C0020C80B0020280C0020260C002044370020E03600200C37002000
:203F8C00FC360020DD360020F8B55C495A4A5D4811605B4C206000E0091F23681068C01A78
:203FAC00884203D20868B0F1BE3FF5D11068401A5549086006F0F4FF0546206806F0F0FF09
:203FCC000146284603F038F8484C214603F0B8FC4E494F4B08604F481A4601E0091F196049
:203FEC001968884214D219680D68B5F1BE3FF5D100261168A1EB86052D68B5F1BE3F02D065
:20400C00091F63261160761C102EF2D3102EE7D11968401A404900F59660086006F0C0FF7B
:20402C00334D294603F008F8214603F089FC3B493B4B08603B481A4601E0091F196019685B
:20404C00884214D219680E68B6F1BE3FF5D100261168A1EB86073F68B7F1BE3F02D0091F45
:20406C0063261160761C102EF2D3102EE7D11968401A2D4900F57A70086006F091FF1D492B
:20408C0002F0DAFF214603F05BFC2849284B086028481A4601E0091F19601968884214D2C9
:2040AC0019680E68B6F1BE3FF5D100261168A1EB86073F68B7F1BE3F02D0091F632611609B
:2040CC00761C102EF2D3102EE7D11968401A1A4900F59660086006F063FF294602F0ACFF54
:2040EC00214603F02DFC15490860F8BD0000C8420000964400007A44D03700204843002042
:20410C00CC370020B0040000D4370020883700201C0B0020E0180020140B0020180B0020D1
:20412C00280B002090250020200B0020240B0020340B0020301400202C0B0020300B00203C
:20414C002DE9FC4F83F0004301E02DE9FC4F1F03FF0847EAD2574FEA42284FEA43095FEA06
:20416C00595906D147EA080A1CBF00210020BDE8FC8F57F000575FF4E06E1EF1FF0EF1458A
:20418C0005D14FF00000190D0905BDE8FC8F002B05D55FF0000AD8F100086AEB07070C03F9
:2041AC00E40844EAD0544FEA40254FEA4106760D08D144EA050A19BF00210020191C101C84
:2041CC00BDE8FC8F44F00054764504D10020090D0905BDE8FC8F002904D55FF0000A6D420D
:2041EC006AEB0404B6EB090E08D5A2463C465746AA464546D046CEF1000E4E46BEF1360FD4
:20420C005CBF4FF0000B23E0BEF1000F04BF4FF0000B1AE0CEF1390ABAF120092EBF08FAA0
:20422C0009FB07FA0AFB4BEA080BDEF1200A07FA0AFA38BFBA4647FA0EF72DBF28FA0EF8D1
:20424C00AEF1200E4AFA0EF8D04415EB08057C4154EA050A02BF00210020BDE8FC8F002CB2
:20426C0058BF4FF0000A06D55FF0010A5FF0000E6D426EEB0404A6F101066D006441FAD5B1
:20428C0015F4806E11D005F480794BEA090B15F5806554F1000428BF761C0BD205F40079FF
:2042AC005BEA090B08BF25F4006525F4E0656D0044EB0404B61CDEBF00210020BDE8FC8F72
:2042CC005FF4E06E1EF1FF0E76450AD34FF0000013F00043FF21C900C91D09051943BDE81A
:2042EC00FC8F270547EA1530210B41EA065141EACA71BDE8FC8F70472DE9F04F0746ADF14A
:20430C00840D01F02DF805F05DF80025012804D107F078F9022800D101255449C868C0F374
:20432C008150012804D10868010E0120884005434F48007806F0B6FD06464F494D4800249D
:20434C0006602EB1FF2302680B55641CA242FAD8002682464FF00109884634460FE0FF2855
:20436C000CD0DAF80010814203D909FA00F10D4201D0022077E00E4308F80040641C57F8E7
:20438C00240000F0FF00FE28E9D1092001F0A8FE3A48002124220823076017A807F0F8FD38
:2043AC0037488DF87490494617AA07F0EDFD50460368002443B3DFF8D08020944FF0040B74
:2043CC0009FA04F10D4218D12E480E4206D104F0FF0141F4C04102F06DFA05E02649095DC7
:2043EC0057F8211002F066FAE0B24FF0FF3107F041F8209848F8240001E048F824B0DAF8CB
:20440C000000641CA042DBD801A800213022082307F0B6FD1D4D1F4A28780024102101AB16
:20442C0009901B48009407F0A7FD0DA828220823214607F09DFD686818490DAA234613902F
:20444C001548149407F090FD154951F80D0C20F4F85040F4005041F80D0C4846C1F8FF0F80
:20446C0010490860204621B0BDE8F08FA83F0050E937002060370020543500209C2C002055
:20448C0030360020007FC7676830002058C40000143600209DB400000033002095960000D0
:2044AC000D300940080009402DE9FE4F02F042F903F04CF963204CA103F0E8FE564CDFF88F
:2044CC006881574D574EDFF84CA1DFF860B1A14606F05EF94C484D490068814202D84C49FA
:2044EC0001200860DAF80000401CCAF800004FF4FA7006F04FFE002859D1002000900DF147
:20450C0006016A4601A805F077FD002849D148460268521C0260BDF804000127102816D1BC
:20452C003E489DF806100078884210D1521C2260009801884FF6FF728A4205D140880009E1
:20454C0005D304F0ABFF02E006F04FFC0746009838B337B306F0EEFD23E0D8F8000006F052
:20456C00F5FF07462068401C2060D7B1388841F2054181420FD1294640F20E30FFF726FC2F
:20458C0048B9B5F9000033782BB9288806F010FF3078401C3070384605F0E4FD384606F0B0
:2045AC0079FDD8F8000007F0DBFC0028D5D0BBF80000C1080ED34FF6FB710840ABF8000015
:2045CC00D9F80000401CC9F80000194807F042FC05F092FB1748006800283FF479AF164821
:2045EC000068804774E7C0460A0A2A2A2A2A205057442D424C45205374617274696E6720CC
:20460C002A2A2A2A0A00C046C0370020404B4C00D0090020A4370020A03700209435002014
:20462C00E0370020ED3700209C350020A035002034340020E80C0020600000102DE9FC41AE
:20464C005E4C574D574EDFF860815A4F94F8E410481E0B2861D8DFE800F07B2C430623439B
:20466C00062343067664042907D001220A2945F8212C14BF0220032004E02021012045F863
:20468C00211C024684F8E200002045F8390C0827C5F8FF7FC5F8F37F45F8392CBDE8FC812C
:2046AC00052914BF09200620002584F8E400356070E094F8E1700120383D002FC5F81B00BA
:2046CC0004BF0620002102D00021F160032084F8E400032045F8010C31603068800859D2B4
:2046EC0094F8E400012503280DD00021404660220523009104F08AFE94F8E400062814BF41
:20470C000A200720D1E702200090002160220523404604F07BFE0420C7E707F01DFCBDE88D
:20472C00FC812249002622480E60012505600E2001F002FC022005F0DDFE84F8E45084F8C1
:20474C00E360BDE8FC81002038600C2578601FE01948006800680146202088472C3D41F601
:20476C001D560F2000214FF4C072072345F8010C4046C5F803600225009504F047FE404660
:20478C0000214FF4C072072305F086F80120386084F8E45004F1780007F012FCBDE8FC81DD
:2047AC0039400C4038600C4000A00C402C500C4004800C4034600C40A0010010900500207A
:2047CC002DE9F04106467568B7680C46ADF1380D07F002FC2978012903D107F0F9FB00206A
:2047EC009EE04FF0010885F8008007F0F1FB207868706078A87060686860A068A860E068BF
:20480C00E86020692861207D2875607D6875A07DA875A069A861207F2877607F6877A07FD7
:20482C00A87700242C622C636C626C63AC62AC6385F82C40102085F83C0085F82D4085F819
:20484C003D40786801F04CFC304601F04BFE304602F072FA70B934480068C168386888478D
:20486C00786801F069FB07F0B7FB2C7007F0B0FB204655E001A821463022082307F080FB76
:20488C000696387B0094294A0990B96801AB05F1680007F071FB01A821462822082307F013
:2048AC0067FB05962249386901AA2346079005F1840007F059FB01A821462422082307F0FB
:2048CC0067FB8DF81C80A87838B905F1B800214601AA07F059FB17482861687838B905F17E
:2048EC00D400214601AA07F04FFB1348E86001A821462422082307F02BFB069405F1F000C4
:20490C000A2201ABADF814400C49079607F01CFB0B4A05F154003346042106F0B5F9304663
:20492C000EB0BDE8F081C046D00100109D550000C5910000D9BD0000C9BD0000AD6F000030
:20494C00F9BA00002DE9FC410D4608AF29783E881C46022940F09B806B6859781F7807EBCF
:20496C00012742F602117F1A00F08980DFF84C814DF2BE603F1A092F02D9283F07D01EE07D
:20498C00DFE807F070675E554C433A31281F41460868401C086086B9B4F5847F0BDAE868A7
:2049AC001146224602F016FA0020E968444A6054012111606CE00D206AE00B2068E00A2084
:2049CC0066E00120009023B2294632A0019001F0DBF95DE00620009023B229462EA00190D2
:2049EC0001F0D2F954E02A20009023B229462BA0019001F0C9F94BE00320009023B229466C
:204A0C0027A0019001F0C0F942E02020009023B2294624A0019001F0B7F939E0282000906B
:204A2C0023B2294620A0019001F0AEF930E04020009023B229461DA0019001F0A5F927E015
:204A4C002020009023B2294619A0019001F09CF91EE00220009023B2294616A0019001F03A
:204A6C0093F915E03620009023B2294612A0019001F08AF941460A68521C0A6008E0009679
:204A8C00012123460191294604F08AF800E00120BDE8FC81434D3A0041563A0043413A008C
:204AAC0043453A0043533A0043493A0050503A0053533A0043433A00545A3A00600B0020A5
:204ACC00683700205B4A117881422DD0082810702AD8DFE800F025211D1915110D0905C037
:204AEC00632012A103F0D2BB632015A103F0CEBB63201DA103F0CABB632021A103F0C6BBCD
:204B0C0063202AA103F0C2BB632031A103F0BEBB632039A103F0BABB63203DA103F0B6BB80
:204B2C00632040A103F0B2BB7047C0464741502053746174653A204552524F5200C046C045
:204B4C004741502053746174653A20436F6E6E656374656420616E64206164766572746901
:204B6C0073696E6700C046C04741502053746174653A20436F6E6E656374656400C046C006
:204B8C004741502053746174653A2057616974696E6720616674657220436F6E6E656374C7
:204BAC00696F6E2054696D656F7574004741502053746174653A2057616974696E67202D29
:204BCC00204E6F7420436F6E6E656374656400C04741502053746174653A204E6F6E2D4317
:204BEC006F6E6E65637461626C65206164766572746973696E6700C047415020537461747A
:204C0C00653A204164766572746973696E6700C04741502053746174653A20537461727428
:204C2C00656400C04741502053746174653A20496E697400910C00202DE9F04FADF1140D27
:204C4C0000F0BCFE454D434EDFF80C91DFF828B1DFF828A14FF6FF78A8F101072C464FF0A9
:204C6C00FF3006F087FA03463068401C306023BB0020009004A96A4601A805F0A3F9E0B9F7
:204C8C00BDF80400102814D199F800009DF8101088420ED100980188884508D14088C00BE9
:204CAC0007D3374A0420014605F0B2F801E004F00DFA009808B106F02DFA2888410834D339
:204CCC0038402880264803782648007853EA00022BD073B92B4800788DF806002A48007813
:204CEC0021498DF807000A6802A802608988818002E003208DF80600584600788DF80E00E9
:204D0C00504600788DF80F0099F800000DF1060106F086FF48B11549082008701448036816
:204D2C001BB1196809B1082088472888810807D34FF6FD7108400F492880002002F0FAFB54
:204D4C002078C0088BD3207800F0FB00207005F049FC84E7B8370020D4360020240C002048
:204D6C00270C0020260C0020760D0020DC360020380C0020C40C0020E6360020E7360020E0
:204D8C00E0360020E4360020E53600202DE9FC4191EA03084CBF4FF000484FF000084FEA71
:204DAC0003354FEA153556006D414FEA43075FEA575711BF45F4001500210020BDE8FC812D
:204DCC004FF4E06E1EF1FF0E77456FD04FEA01334FEA133342005B414FEA4104640D11BF96
:204DEC0043F4001300210020BDE8FC8174455DD0E41B002100205FF0360EAB4200D1B2428F
:204E0C0005D340414941921B63EB050301E040414941BEF1010E05D053EA020702D05200B7
:204E2C005B41EAE7BEF1200F09D2BEF1160F0CD3CEF1200720FA07F100FA0EF00FE0AEF10F
:204E4C00200E00FA0EF1002009E001FA0EF1CEF1200720FA07F741EA070100FA0EF011F4EE
:204E6C00001F02D140004941641E401C51F1000111F4800F1ABF641C21F4800121F40011A0
:204E8C004FF44077FF37E419DEBF00210020BDE8FC8107F58067BC4208D249084FEA300064
:204EAC0041EA045141EA0801BDE8FC810020FF214FEAC101C91D4FEA015141EA0801BDE88B
:204ECC00FC8170472DE9F041424C474D8046C8F38140401E02D0401E2AD025E0284620309C
:204EEC000168880C20D24FF4804020603A48D0F802204B0AC1F3033703F0800322F08F026C
:204F0C00134347EA0302C0F80220D0F801300E1266F30303C0F80130026801F0E70722F063
:204F2C00E70247EA020102E04FF00041204601602A4E06F108000068C0F3C0070FB940209E
:204F4C00A0624FF40070206406F0B0FD40F0300084F8C800C8F3815038B3401E03D0401EBF
:204F6C001ED002211DE0012006F05AFA07460420394604F0FBF8042006F052FA8742FAD1DB
:204F8C00366826F07F4005F09DFA15480068036807214FF06022300E98474FF4806020602D
:204FAC000321042004F0E2F806E00420012104F0DDF80C4805F086FA284600680B4947F6AA
:204FCC00180700F03F0084F8CB0F094E0F803068BDE8F08140A00C400A600840A83F005078
:204FEC00B4010010BD3786006C13005070B00C402C20094070B5ADF1380D00F0B1F9324979
:20500C0008682822082340F00200086001A8002106F0AEFF2D4EB0782D4907903B48002342
:20502C0001AA06F0A1FF00213022082301A806F0A7FF0025ADF81C50274A3078192101AB0B
:20504C0009902448009506F097FF2822082301A8294606F08DFFF078079021491F4801AA94
:20506C002B4606F081FF01A829463022082306F087FF0124ADF81C401B4A70781A2101ABD2
:20508C0009901848009506F077FF184818492A46134606F059FF1E4806F0BCFD15484FF67B
:2050AC00FF71818314490C70C57714480570144805701848057018480570124805701248E6
:2050CC0005600EB070BDC0460020094084C4000009B800004C36002089AF00006833002067
:2050EC00216A000068360020F98D0000EC330020C1A5000074350020C1330020C033002040
:20510C00C2330020C5330020AC33002034330020BD610000C3330020C43300202DE9F04F30
:20512C008B46434904464022ADF1540D03A801F051FE4248006808B3204613A905F072FC3E
:20514C00584614A905F06EFC9DF84C008DF82B009DF84D008DF836002C208DF837009DF8BE
:20516C0050008DF82E009DF8510025218DF8390000208DF83A0003A805F0B8FE2D4DDFF8B0
:20518C00B890002001270446824628704E46687024480090504602900CE0009804F054FE6F
:2051AC0098E80C0000F08AFC02F0FAFE00900298401C029002980FF270088145EDDC5046A7
:2051CC0001902BE02F706F7002940CE0009804F03BFE98E80C0000F071FC02F0E1FE009018
:2051EC000298401C029002988642EFDC2C706C70CDF808A00CE0009804F026FE98E80C00E1
:20520C0000F05CFC02F0CCFE00900298401C029002988642EFDC0198401C01900198834552
:20522C00B6DDCFE70000803F0B7A6F0C0100F03F84C2000007200240E09304008C37002021
:20524C002DE9F84306F0F6F9DFF800813E4EDFF800910546A80821D330464468F4B10021E9
:20526C004160A26921692940114341F00201A161414601F1080723693A689A433A6004F1D7
:20528C0010020CCA0A680C301B1C9A430A60214604F034FC4846022106F0CCFA7468A8086A
:2052AC0014D204F1100090E80C00002102EA05000B4000D1002809D0B460A06915404FF48F
:2052CC00804105434846A56106F0B4FA214D2868002836D1304606F0BBFD041C31D01E48A9
:2052EC00E1680068884227D1A06803F055FD1B490860E8B9414601F1080220691368184393
:20530C00106004F1100090E80C000A68181C1043086000200861A06841F80C0C01F1100043
:20532C0000680028FAD0304606F0F0F92C6008E0086802F0DDFF04E048464FF4805106F084
:20534C0079FABDE8F883C046843600200C10044034330020883600209C330020BC3300200B
:20536C002DE9F041444C94F8E700ADF1280D00286FD1394F387B01250021242284F8E75021
:20538C007E6884F8E6000823C4F80C6101A806F0DFFD002604F10C00069601ABADF8146062
:2053AC002E490796324606F0CFFD2D4904F1300001AB324606F0C8FD2A4904F1540001ABB1
:2053CC00324606F0C1FDB868014628468847DFF89C8025487B7B0078D8F80410C1F38157B3
:2053EC001BB1032F03D184F8E150032F16D0022F14D0012F26D103201D4C009031464FF0FC
:20540C0040521C23204604F001F8009531464FF400720923204603F0F9FF13E0022005F014
:20542C0081F8032F0CBF4FF47A7142F21071114800685434B1FBF0F1204606F0C5FD2046AD
:20544C0006F0BEFDD8F80000C00802D2304605F069F80AB0BDE8F081E8C30000D770000095
:20546C00F971000055780000E9370020B03F005000A00C4094C400009005002070B51F200D
:20548C000621ADF1400D04F069FD0124002540F2053021468DF83A400DF13A02ADF8385016
:2054AC00FDF7EAFB33A00FC86E4686E80F0006A805F0D0FD18B9684603F00CF802E006A8B6
:2054CC0003F008F85020ADF830008DF83B404FF44870ADF8345007212A4AADF832004FF4AE
:2054EC007A70ADF8360040F20730FDF7C5FB4FF4447021460DF13B02FDF7BEFB40F2113005
:20550C0002210CAAFDF7B8FB40F2123002210DF13202FDF7B1FB40F2133002210DAAFDF753
:20552C00ABFB4FF4457002210DF13602FDF7A4FB0620A02104F012FD0720A02104F00EFD04
:20554C000820A02104F00AFD0920A02104F006FD8DF83C5040F2064021460FAA04F0ECFAF7
:20556C00094805F069FC0948007806F007FC10B070BDC046506F776572656420427920509E
:20558C0068796E00600D0020880D0020943500202DE9F8430746D7F80880D8F800007D68DB
:2055AC00066C002416F4F06F466439D1DFF8F080F0091CD2700961D395F83C00AC6B401E13
:2055CC00844202D995F83C40641E3846214601F027FFA86B001BA863A86B18B14046006894
:2055EC0000284BD005F1840006F0AAFC46E0A96B384601F015FFA86395F82D0050B9A86BA8
:20560C0018B140460068002838D005F1840006F097FC33E0AC6305F1840006F091FC2DE068
:20562C00F00A01D2A14611E0D8F80000002144684160A96B04F00F04202900D9202138467F
:20564C0001F0EEFE16E0A86B401EA863A86B88B13846012101F0E4FED8F80000446814F0B0
:20566C000F04C0F80490EED0286B401E2863686B401E6863EC77384602F036FDB0090CD3EB
:20568C00A96A51B10E46384604F022FEA862A86A18B93846311D03F06DFFBDE8F883C046C5
:2056AC00703700202DE9F04707467E68D7F8088091460D4606F090FC8246B06A28B1504643
:2056CC0006F086FC4FF0FF3070E006F1F00005F005FE0024F47735625046746206F078FCAD
:2056EC0006F07AFC324D8246287820B9022004F019FF01202870504606F06AFC2D490868B3
:20570C0040F4807008603846494604F0E1FDB06208BB3846494603F02DFFB07818BBB168FD
:20572C0006F1B80006F008FC28BBB4621020F0774146304602F0C6F806F04EFC064628784B
:20574C0018B1022004F0D6FE2C70304606F040FC4FF0FF302AE0D8F80010886B40F02000AB
:20576C008863B07808B1204620E0B16806F1B80006F0E2FB08B1706A18E03846494603F0C5
:20578C00F9FE1020B4624146F077304602F09AF806F022FC0646287818B1022004F0AAFE51
:2057AC002C70304606F014FC4FF0FF30BDE8F087C733002030100040F0B50746880FADF17A
:2057CC00140D6DD303F05AFC364E00253560364846F81C0C0120FEF78EFD344806F01AFACA
:2057EC00334840F60A0101802A464280037B03F0F00303734560437B03F0F00343F00103D4
:20580C004373BC68628000E06468636813B11A889142F9D102466260607B00F0F0006073AE
:20582C00254806F015FB80680088C91F814218D0491C814215D0388C98B107F120014D80E6
:20584C0028464860087B00F0F0000873487B00F0F00040F0010048735160507B00F0F0005D
:20586C005073B868694605F0B5FC684606F016F9B868FFF726FB30680028FCD035600120B8
:20588C0005F0CEFD012808D0607B00F0F00040F001006073074806F0BDF9B8681C3E306077
:2058AC0005B0F0BD1C10044001010E04D5250000AC360020018B0000843600202DE9FC4141
:2058CC001E4608AFBB883F8814460D460FB10B2068E02878022861D16868417807784FF66E
:2058EC00CB7007EB01273F1A49D07F1E3AD0DFF8B8807F1E1AD07F1E2DD01B3F13D07F1E24
:20590C0025D10096EA68DBB20020214602F022FD002741460028086043D125480121016036
:20592C00224807703DE0B3B90D273AE00096EA68DBB20120214602F00DFD00274146086094
:20594C0078BB1C48012101601B48077029E000200A27308025E001203080E8680078002778
:20596C0020701EE0E86800278773E86806F00EF83080E9680E22204601F02CFA11E0E868E1
:20598C0000274772E86806F001F83080E8680168216041686160007A207202E00020012752
:2059AC0030803846BDE8FC81400B0020A8070020880C00208C0C0020640B00203C482E495B
:2059CC002DE9FC4704F052FF3A48002404703A484FF6FF71018004F0E3F92849A0460870AC
:2059EC00274FCDF8008001200190264822462346394603F07DF902262348CDF800802246C7
:205A0C0023463946019603F073F904251F48CDF80080224623463946019503F069F91C4828
:205A2C00DFF87090102221460570484601F0C9FFDFF864A010222146504601F0C2FF174F0C
:205A4C0020463860164804701648174904700720087016484A4610210470304604F0BCF9E7
:205A6C0003201021524604F0B7F928463A46014604F0B2F9BDE8FC87D8360020EB3700201E
:205A8C00C1B70000583400207C340020A0340020DD360020FC3600200C370020E0360020F4
:205AAC00E4360020E5360020E6360020E7360020D4360020DC3600202C0C00202DE9FC41E5
:205ACC0091EA03084CBF4FF000484FF000084FEAC32545EA52554FEAC2264FEA43077F0D34
:205AEC0011BF45F0004500210020BDE8FC815FF4E06E1EF1FF0E774555D04FEAC12343EA05
:205B0C0050534FEAC0224FEA4104640D11BF43F0004300210020BDE8FC81744543D0E4195A
:205B2C00A3FB0501A3FB06E7A2FB06631EEB030E57F1000751F10001A2FB05631EEB060E56
:205B4C0057F1000751F10001FF1851F10001C01951F100014CBF4FF4806E4FF4007E10EB39
:205B6C000E0051F1000148BF641C01D4400049415FF44077FF37E41BDEBF00210020BDE8E0
:205B8C00FC8117F58067BC420DD24FEAD02040EA41504FEA41014FEA113141EA045141EA27
:205BAC000801BDE8FC810020FF21C900C91D090551EA0801BDE8FC812DE9F0430546ADF119
:205BCC001C0D06F0B5F904F05FF84FF000080746CDF80C8006F092F8444630F0010000D0C1
:205BEC0017B96FF0040059E0686860B1B0F1FF3F05D004A904F04EFC061C06D04DE04FF049
:205C0C00FF30049001E0CDF8108006F08DF90499012600EB010900E004937868049906F060
:205C2C008BF900282ED0684604F085FBD8B99DF8040005A904F0D8FD88B9AB68BDF81400CE
:205C4C009DF80610029A984748B1BDF81400A8819DF80600A87302984646286112E0029935
:205C6C0003A804F04FFB0498641CB0F1FF3FD4D00028D2D006F058F9B9EB000302D004986A
:205C8C009842C9D2039907F1080004F0F5FE24B1786806F045F9641EFAD1304607B0BDE8F8
:205CAC00F083FEE77CB50446084602F053FA344E02461821304604F01BFE05F0CDFB40F203
:205CCC00FF32002380B22C210090304603F09EFB05F0F4FE1C210246304604F009FE05F081
:205CEC00ADFB02461421304604F002FE05F0C6FC02461021304604F0FBFD204602F088F99E
:205D0C0002460C21304604F0F3FD204605F09EFC1C4D400040F020002870204605F0A2FC29
:205D2C0040F010002870204605F064FA02462821304604F0DDFD204605F0ACFC400040F07E
:205D4C006000E870204605F0B1FCC00040F0800005F8080C204605F0B5FC800040F47C407A
:205D6C00A5F89300204604F0D9FD02460821304604F0BEFD4FF48000A5F2091108607CBD0C
:205D8C0000A00C4049A10C402DE9F84F0B98009031480F4601681C46164662180A99491CCE
:205DAC00914203D2002101600D203DE00168FD68DFF8A8B04FF00009C8466D180919016008
:205DCC002FE033782BBB2448C0F8009017A1102285F80090584600F0FDFF0099584605F0B6
:205DEC0049FAF86805F0D2FD8246584605F0CEFD4C465044642804D3584610A105F03AFA09
:205E0C0003E0F968584605F035FA15490120086007E016F8010B641E05F8010B24B285F8AA
:205E2C000080002CCDD14846BDE8F88F4669656C64204368616E6765202D20002A2A204DDA
:205E4C004553534147452053495A45204552524F52202A2A00C046C05C0B0020E430002084
:205E6C00580B0020224808B5006800902148694605F02FFD1DA120480A880280897881700F
:205E8C001E48694605F025FD1D48694605F021FD1C48694605F01DFD1B48694605F019FD64
:205EAC001A48694605F015FD1948694605F011FD1848694605F00DFD174920200870174925
:205ECC0008701748694605F004FD1648694605F000FD1548694605F0FCFC1449002008704D
:205EEC001349012008601349086008BD787800C076C40000C832002090370020E834002001
:205F0C0084320020EB0A0020870B00209C0D0020C00A00206F0D0020E7370020E437002010
:205F2C00383700201C370020640B0020550B0020880C00208C0C00202DE9F843044606F047
:205F4C004BF881462D48021992F8ED10491ECFB2002F82F8ED704BD12B4D05EB84052E7873
:205F6C00698836F07F0788461AD1F10911D24FF08054D4F8B801806901464046884704F5CC
:205F8C00DC742068406B0146404688470228F8D121E000EB8800D0F80011002088471AE0AD
:205FAC004FF08054D4F8B801006A014640468847D4F8B801806A014640468847D4F8B801A7
:205FCC00006B01464046884701210D4A0D48116001688908FCD306F03F003F2801D0FFF743
:205FEC00ABFF687800F03F003F2801D0FFF7A4FF484605F0EDFFBDE8F883C04690050020C1
:20600C002820086028200840A4C100002DE9F84F2E4C294EDFF8A490294FDFF8B4B04FF084
:20602C00000AD04625463068401C30602B480068642105F081FFD9F80030B3B93B682BB382
:20604C002048036813B3204805F0A0FC01461E4800F801A02068401C20601B48491C05F03B
:20606C0033FA98B1C7F8008010E02868401C2860584605F08BFC01460BF801805846491C13
:20608C0005F022FA10B15046C9F8000005F01EFE0028C8D02868401C286005F059FC0D49E6
:2060AC0008604FF4806001F043FFFBF71DFB0A4805F0D2FEB7E7C046DC370020180C0020DA
:2060CC001C0C0020200C0020942B0020D83700208C2A0020BC3700200C350020643700200D
:2060EC002DE9F041064605F077FF2D4D8046A91991F8ED00421C002881F8ED204AD1294C82
:20610C0004EB8604277807F03F003F2801D0FFF7E7FF607800F03F003F2801D0FFF7E0FFFD
:20612C00668837F07F001AD1F80911D24FF08054D4F8B801406901463046884704F5DC74DA
:20614C002068406B0146304688470128F8D121E005EB8605D5F80011012088471AE04FF0FF
:20616C008054D4F8B801C069014630468847D4F8B801406A014630468847D4F8B801C06A9B
:20618C000146304688470121074A0848116001688908FCD3404605F01BFFBDE8F081C046B9
:2061AC0090050020A4C100002820086028200840042998B54CD1274805F04AFE274C30B9DA
:2061CC002549C87F400804D34868206001E0C068206020684168224A097811604168126874
:2061EC000978914207D087692FB16FF0FF0100224FF00073B847022004F094F91120FFF79C
:20620C006FFF1849012008702068007C18B116480078012802D00E20FFF762FF20684168B6
:20622C008F6812480FB9CF6827B10021C1611349503101600E4A40F2FF711160002181613B
:20624C000C4941610C4805F0E5FC192005F064FE98BDC04684360020743500209C33002094
:20626C00D0210840C2330020C0330020001004400000046002000040C5570000010007068D
:20628C00F8B5144602460F46C1F30A5028A590B921F0004352EA030020D0104622A20CCAB7
:2062AC00FFF70CFC284B02460F46C1F30A50A342A0F136001DDC40F2FF76864204D1104677
:2062CC000B46FDF742FFF8BD0019761E864216DB002805DD6FF31E5141EA00511046F8BDAF
:2062EC0010F1360F07DD36306FF31E5114A541EA0051104612E04CF25030A04209DA1349D5
:20630C0022200DA6086096E803003B4605F05AFDF8BD95E803003B4605F054FD95E80C0041
:20632C00FFF7CCFBF8BDC046000000000000504359F3F8C21F6EA501000000000000F07F9E
:20634C00000000000000903CB03CFFFF940D0020294A2DE9F04180460126284816600768BE
:20636C00002FFCD0294C2A4FC020443C206007F1080001682348890804D20168090C41F05E
:20638C00F00100E072211E4D85F85412002111638768384601F0C6FB40463946FFF782FC12
:2063AC001C48B038816D40F20F226FF31F418A4212D901680068C1F30363C0F3034003B126
:2063CC005B1E072805D006280EBF0720801C00F00F0043EA001028703846FEF773FD0E4869
:2063EC0014380068C1680220884740202060064F3E60BDE8F081C046101009409402224370
:20640C0002600840AC3F00509404604244600C40A83F00506C130050B40100102DE9F0414F
:20642C00DFF8B480044698F800001F4616460D46ADF1380D012804D0FEF7DCFD012088F808
:20644C0000000DB165600EB9002042E0A66005F0C3FD224A117819B105F0BAFD002038E046
:20646C001178491C117005F0B3FD1FB909A805F05BFA09AF386820607868E060387A2074EB
:20648C00F8686061386900B1A06104F120000021782201F096FA684600212422082305F0F6
:2064AC0077FD012000216A468DF8180004F1380005F06AFD684600212422082305F048FDCA
:2064CC000749069404F1700000226B4605F03CFD20460EB0BDE8F081070C0020A8330020F8
:2064EC00F3BD00002B4AF0B538CAADF11C0D02A938C10CCA4FF0805581E80C004668846860
:20650C00D5F8D001C16820688847216822488A6B10408863206840F2F271416496F83C00A2
:20652C0096F83D10C0100DEB80008068084321684863684605F0ECFC1A4B194F317FD5F8F0
:20654C00D001B26953F82130717F456857F821101943B37F114E206856F823300B4301998C
:20656C00A8471148021F116841F010011160016841F001010160A17D0027FF2903D0E17DDF
:20658C00FF2900D001271FB1016841F44041016007B0F0BD84C300000DF8FFFFC0C300004E
:2065AC0068C4000008C40000301000402C4810B500684FF48051ADF5FE7DADF10C0D00F0DE
:2065CC000F00B1EB802F02D019A002F02FFD01A84FF4FF314FF4007200F0FCFB4FF0FF3086
:2065EC007C902048204C7790207830B101A8FF21802201F0E6F9002020701C4C0321012295
:20660C00204602F027FF4FF4F83004F0FBFE00904FF4FF314FF4007201A804F0E5FE01213E
:20662C0000900A46204602F015FF7FB003B010BD30302C2039392C4E4F5F52454C45415351
:20664C0045202A2A2A2A20464C41534820534543544F522053495A4520213D20344B00C06B
:20666C0030240340C505FFC5E337002000400340F8B503F05DFB4FF08054D4F8B401036835
:20668C0010214FF4C04202209847D4F8B401214A03680F21012098471F4C204605F072F8C0
:2066AC004FF4E130A0610025657501262670A575032020776577A577E57526751748E0605D
:2066CC0017482061174866700068804707462146284603F061FD164C206050B122212A4661
:2066EC0005F042FB206821212A4605F03DFB02F089FD294630460A4605F006FC0A49086096
:20670C000A480168384688474FF4806001F010FCF8BDC046006000203035002061A500007F
:20672C00F1BC0000AC0C002064370020B00C00208C3700207FB5234D2349284604F0ACF838
:20674C0002F082FA2148006800F0FF00802800D3002002901E480068036807214FF4C0422C
:20676C00052098471B48002404601C4805F006FA19492646042432220860334600961848A4
:20678C001849019402F0B4FA01204FF4FA721749009033461448019402F0AAFA33464FF4DB
:2067AC007A72134800931349019402F0A1FA04F07DFEFEF763FE287805F0E4FA05F04EF901
:2067CC0000907FBD9435002098350020A0100050B4010010104009409C3500202C37002039
:2067EC003434002061B70000C43400207D6E00000C35002089880000F8B505F043FA05F0A4
:20680C0053FA044604F00C000C2845D0E0081ED204F0F2F8234E376805460120014604F01F
