:20000000483E0020D1B0000001CA011001CA011001CA011001CA011001CA011001CA011091
:1C00200001CA011001CA011001CA011001CA011001CA011001CA01103FCA011082
:20003C000EB52848001D20F0030001902648029001990298401A25490860254901980860DD
:20005C00234824490068086021480068009005E00098002101800098801C00901B480168CC
:20007C001B480068401800998842F1D81748006881081848006800EB8100001F009000984A
:20009C00002101801348006800900098E821018010480068E83000900C48006881086FF021
:2000BC00EB0000EB8100009908800B4900980860002005F069F80949086006480649006823
:2000DC0008600EBDC8340020483E0020BC32002014320020183200200C3200201032002071
:0400FC0000687047E1
:200100003C000000000000000000000034010000000000000000000001000000000000006D
:1C01200000000000000000000000000001000000000000000800000000000000BA
:20013C00340000000000000000000000680100000000000000000000010000000000000005
:14015C00010000000000000000000000080000000000000086
:2001700030000000000000000000000098010000040000000000000001000000FFFFFFFFA5
:10019000FF00000001000000080000000000000057
:2001A0002C0000000000000000000000C4010000040000000000000001000000FFFFFFFF4D
:0C01C000FFFFFFFF08000000000000002F
:2001CC0034050000E401000099A1011095A70110A5C2011009B2011045B80110000000000B
:0801EC00000000002F000000DC
:2001F400280000000000000000000000140200000000000000000000FFFFFFFF00000000B1
:080214000800000000000000DA
:20021C00300500003002000069C201106DC101101FC2011095BA011000000000000000008E
:04023C002D00000091
:20024000300500005402000075C20110A9B601109DBF011049B601100000000000000000DE
:040260002E0000006C
:200264002400000000000000000000008002000000000000000000000000000008000000CC
:040284000000000076
:20028800240000000000000000000000A40200000000000000000000000000000800000084
:0402A8000000000052
:2002AC00240000000000000000000000C8020000000000000100000000000000080000003B
:0402CC00000000002E
:2002D00000000000280B0020040000000000000000000000200000007001000030000000F6
:2002F0001C020000300B00200400000000000000000000000C000000300400001800000019
:2003100040020000380B00200400000000000000000000002400000048040000180000009C
:2003300000000000400B002004000000000000000000000010000000A00100002C00000061
:20035000CC010000480B00200400000000000000000000002000000064020000240000009F
:20037000FFFFFFFF500B00200400000000000000000000002800000088020000240000001C
:20039000FFFFFFFF580B0020040000000000000000000000580000003C0100003400000001
:2003B000FFFFFFFF600B002004000000000000000000000010000000600400001800000016
:2003D000FFFFFFFF680B00200400000000000000000000001C000000AC020000240000008C
:2003F000FFFFFFFF700B002004000000000000000000000038000000F401000028000000FD
:20041000FFFFFFFF780B002004000000000000000000000054000000000100003C00000098
:1804300018000000000000000000000040040000080000000000000050
:1804480018000000000000000000000058040000080000000000000020
:18046000180000000000000000000000700400000800000000000000F0
:0804780001000000B8E10000E2
:040480000068704759
:040484000100000073
:0404880000000E0062
:04048C0000000F005D
:040490003200000036
:040494000100000063
:04049800E009002057
:04049C00000200005A
:0404A0000000000058
:0404A40001CA011078
:0404A8000000000050
:0404AC00000000004C
:0404B0000800000040
:0404B4000000230021
:0404B80038080020E0
:0404BC00010000003B
:0404C000F809002017
:0404C400080000002C
:0404C8000000000030
:0404CC00000000002C
:0404D0000000000028
:0404D4000000000024
:0404D8000000000020
:0404DC00010000001B
:0404E000A008002050
:0404E400060000000E
:0404E800010000000F
:0404EC00A407002041
:0404F0000000000008
:0404F4000000000004
:0404F80000020000FE
:0404FC0000000000FC
:02050000704742
:020502002900CE
:020504000100F4
:020506002500CE
:020508002D00C4
:02050A002E00C1
:02050C002F00BE
:02050E000100EA
:0105100001E9
:080514000300000064E1000097
:08051C000000000000000000D7
:0405240000000100D2
:0405280000000300CC
:04052C0087C401106F
:04053000380500008A
:040534003805000086
:0405380000000000BF
:04053C00900000002B
:040540009000000027
:0405440000000000B3
:04054800F80900208E
:04054C00D5D70000FF
:040550002000000087
:04055400F0E00000D3
:040558002CE0000093
:04055C000DC30110BA
:040560007F91000087
:04056400EF9500000F
:0405680099C801101D
:04056C009BC8011017
:040570000000000087
:0405740097DD00000F
:0405780048DF000058
:04057C0060DF00003C
:0405800030DF000068
:0205840008006D
:0205860009006A
:02058800010070
:02058A0000006F
:01058C00016D
:040590000000000067
:040594000000000063
:04059800000000005F
:04059C00000000005B
:0405A0007DDB0000FF
:0405A400A9B90000F1
:0405A800F9C700008F
:0405AC0095BC0000FA
:0405B000FBBC000090
:0405B4003DBF000047
:0405B800358D00007D
:0405BC0095D90000CD
:0405C000C59E0000D4
:0405C40011C8011049
:0405C80021C8011035
:0405CC000800000023
:0405D0002400000003
:0405D400180000000B
:0405D80028000000F7
:0405DC0020000000FB
:0405E0003C000000DB
:0405E4000C00000007
:0405E80034000000DB
:2005EC002DE9F843089C582B804617460CBFBEA5C2A5002908BFB8F1000F05D12068411E5A
:20060C002160302707702AE04FEAE7793E460246083E13D0083E0DD0002908BFB2F1FF3FF3
:20062C0004D94B463A4603F055FC0BE0B2FBF7F0002107E008071209090902E04807D208AE
:20064C00C9081043226800FB1783561E0029EB5C26608046137008BFB8F1000FD6D12068EA
:20066C000DF064F8401EBDE8F8837CB51446002806460D460094B8BF404264230A22C1172D
:20068C00FFF7AEFF702D0BD0502D09D00A2E09DA16F10A0F04DD2068411E21603023037093
:2006AC00002E01D42B2100E02D212068421E226001702068411E216005707CBDF8B51D46B0
:2006CC0017460E4604460DF031F8324603460021002A284603DD9342A4BFA118491E27B163
:2006EC0005686E1E06602E272F70934208DAD71A30251A4603685E1E06607F1E1D70F9D1FD
:20070C00002A0CDD8C420FD80F1B7F1C026811F80139541E04607F1E1370F7D1F8BD0168B7
:20072C004A1E026030270F70F8BD2DE9F04F04461646B068ADF16C0D0028199302D003D5B0
:20074C00062000E00120B060884630210FF2083B8DF800109BE80C00471C2046414607F088
:20076C004BFEA14638BF88F00048002412E0302008705AE09AE80C0005F028FD641E884676
:20078C00814611E09AE80C00484604F08BFF641C88468146CAA20CCA414607F070FE0FF2B7
:2007AC00183AEFD300201A909BE80C00484607F023FE09D01A9DC4A20CCA484607F01CFEAF
:2007CC0038BF0125002DD5D148460AF067FB83460DF1010109F0A0FE0DEB000524188742D1
:2007EC0005F1010519DD3F1A58460BF0E7FB0B4602464146484603F02DFE9AE80C0005F0D8
:20080C00E5FC884681460AF049FB83460BF130007F1E05F8010BE7D102E00DEB07056D1C56
:20082C0015F8010D35280ADB294611F8010D401CC2B23A2A08709ADA6F468F4204D01A989D
:20084C000DF10107287003E01A98641C05F8010C14F1030F08DBB068A04214DA022C03DBE1
:20086C001A98641E001905E0002C05DC1A98C4F10104001B1A900124307B199A801EC1B268
:20088C001A98FFF7F2FE38460CF050FF0025401E844219DC021B521C002803D4395C302935
:2008AC0001D004E0302115B933681B0908D3DDF864C0DCF800305D1ECCF800500125197083
:2008CC00521EA0F10100E7D13068002200F00800284318BF0122199B21463846FFF7EEFEC0
:2008EC001BB0BDE8F08FC0463031323334353637383941424344454600C046C030313233C9
:20090C0034353637383961626364656600C02DE9FE4F0D99441C9946924601900FF2381B6A
:20092C0000940C9F029130210170194610469BE80C0007F061FD38BF89F00049002512E0AE
:20094C003020087054E098E80C0005F03FFC6D1E8946824610E098E80C00504604F0A2FE0B
:20096C006D1C8946824656A20CCA494607F087FD0FF24418EFD37F1C9BE80C00504607F09D
:20098C003BFD0AD050A20CCA504607F035FD4FF0000638BF0126002ED5D150460AF07EFA73
:2009AC000646214609F0B8FD2418291802987F19002F016017DD30460BF000FB0B46024692
:2009CC004946504603F046FD98E80C0005F0FEFB894682460AF062FA064606F130007F1E39
:2009EC0004F8010BE7D114F8010D352810DB214611F8010D401CC2B23A2A0870A0DA01988C
:200A0C00884205D10299019A08680092401C0860002100982170BDE8FE8FF8B51D46174645
:200A2C000E4604460CF082FE3A4631462B468918491E521E0FD4521C002903D48842C8BF0E
:200A4C00665C00DC30261D686F1E521E1F60A1F101012E70F0D1F8BD0000000000000000ED
:200A6C00F0B51546AF681C460246ADF5FE7D002FADF1100D44BF0627AF60266802A8009794
:200A8C000B46019003A8FFF742FFAA68029923460746FFF7C2FF20680122B04203D128686B
:200AAC00000938BF0022029938462346FFF706FE7FB004B0F0BDC046000000000000244092
:200ACC000000C0FFFFFFDF41000000000000F03F2DE9F0471646B4689A4688460746ADF1A0
:200AEC00700D002C44BF0624B4600FF2E82999E80C0007F0C4FC4FF000050DD90FF2DC297A
:200B0C0099E80C00384607F077FC05D9B5A20CCA07F072FC12D11FE099E880010EE099E891
:200B2C000C00384604F0BEFD6D1C07460FE099E80C0005F04BFB6D1E88460746ABA20CCA1A
:200B4C004146384607F058FC0FF2A829EFD399E80C0007F094FCE2D9009402A80B463A46C7
:200B6C00019003A8FFF7D3FE04460298022809D1401E029020460CF0D9FD6D1C0021001993
:200B8C0000F8011C317B28465246FFF76EFDB268029920465346FFF740FF20460CF0C6FD13
:200BAC0002990122884203D13068000938BF002220465346FFF782FD1CB0BDE8F0872DE9A1
:200BCC00F04F074616460020ADF17C0D1B9381A4009094E80C00384607F051FC88460FF25E
:200BEC0004290CD97DA494E80C00384607F004FC05D999E80C0007F0FFFB02D109E094E825
:200C0C008001414638466A4609F028F90098401E0090307BB5680024A0F14101B5F1FF3F4F
:200C2C001D9108BF0124A24641280CBF754876481E9030208DF8080099E80C00414638465A
:200C4C0007F0DAFB38BF88F0004899E80C00414607F0D2FB0CD0384601AA09F0FFF8019A9D
:200C6C0041463846C2F1010205F02CFF8846074638460AF013F983460DF1090109F04CFCDC
:200C8C00044658460BF09AF90B4602464146384603F0E0FB0FF2641B0DEB04021C940746EB
:200CAC00BAF1000F02F1090453D16D1C15D09BE80C0005F08BFA884681460AF0EFF81E99A6
:200CCC00095C04F8011B0BF079F90B4602464146484603F0BFFB6D1EE9D11D9F641E002F11
:200CEC0014BF494D474D217828460CF08AFB401B082833DB27464FF000081D987F1E00289C
:200D0C0014BF414D3F4D397828460CF07AFB401B401C1028B4BF295C3021102839701DDB39
:200D2C0087F80080E9E79BE80C00384605F04EFA0D4607460AF0B2F81E99095C04F8011B16
:200D4C000BF03CF90B4602462946384603F082FB074699E80C0007F04FFBE4D10025307BC1
:200D6C002570412814BF702150211B9A0098FFF77CFCB068B0F1FF3F05D10DF109000CF009
:200D8C00D5FC401EB0601C991B9B0DF1090402462046FFF742FE3168B0682A4601F0080193
:200DAC00084318BF01221C991B9B2046FFF786FC307B412814BF782158211B980268531E12
:200DCC0003601170016830274A1E02601FB00F70BDE8F08F000000000000F07F00000000B8
:200DEC000000F0FF0000000000000000000000000000F03F00000000000024400000000065
:200E0C0000003040F4080000080900002DE9F04F0646ADF5FE7DADF1680DA29835688D9084
:200E2C003068984617468B460CF080FC0146CDF8308228468B974919002581428E9140F2A1
:200E4C004B84899594952C468A942F469597BB49979196914FF0FF330393899901910F46DC
:200E6C008DF810703C4602940778252F08BF271C0FD0002F00F0308431688C9A491C316005
:200E8C0000788B999047306807786D1C252FF0D1019F31685C46491C316011E047F010070E
:200EAC000AE047F0010707E047F0020704E047F0080701E047F0040701973068401C30606D
:200ECC0030680178B1F12000F4D0C01EEFD00838EAD0801EE5D0C01EE0D02A291CD095998A
:200EEC0086A80A2207F04DFD3068017830290BDB86AA3A2908DA0146401C3060097802F8D8
:200F0C00011B01783029F4DA9DF81872AFB186A809F07CFD029010E0E41C24F00304241D0C
:200F2C0054F8041C002903D547F001070197494202913168A346491C3160306801782E2963
:200F4C0031D1401C306000782A2820D0959986A80A2207F016FD3068017830290BDB86AACB
:200F6C003A2908DA0146401C3060097802F8011B01783029F4DA9DF81872002F08BF8A987F
:200F8C0002D086A809F042FD0146306809E03068E41C24F00304401C241D54F8041C3060F9
:200FAC00A34603910178019F4C391FD01C3911D0091F21D13068401C306001786C2903D066
:200FCC0047F04007019717E0306847F48077401C3060F7E73068401C30600178682918BFFF
:200FEC0047F02007EED147F4007701E047F0800701973068401C30603168491C3160007854
:20100C006E288DF8100000F03583732800F0E7820DF21520DDF80880059020214FF4FF72E2
:20102C0006A807F0AEFC05988A9901700F46909791910DF5057C92910DEB0803939103F1C5
:20104C001800CDF814C09DF810708F90642F15DC642F23D0B7F1250000F0B6821C3800F05C
:20106C000E81001F022840F20A81133816D0093800F00581801E00F0F78174E1A7F165008F
:20108C00022840F2FC80001F08D0801F012805D9801F18BFB0F1030040F0658103990029DA
:2010AC0004D4019820F01000019002E0012003900146B7F1580007D0173807D0401E03D0F7
:2010CC00083818BF0A2202D1102200E00822702F79D0DDF854920198CA4600F4EC602038CE
:2010EC0053D0203843D0C0382AD0B0F580700DD0B7F1580067D00C385CD0401F5AD0801F23
:20110C0061D0801F5FD0C01E5DD066E0B7F158000AD00C384ED0401F4CD0801F04D0801FAA
:20112C0018BFB0F1030058D1E41C24F00304241D14F8049C4FF0000A4EE0C046FFFF0F006D
:20114C00B7F158000AD00C3808D0401F06D0801F04D0801F18BFB0F103003ED1E41D24F0A7
:20116C0007040834A4F1080090E8000634E0B7F1580028D00C381DD0401F1BD0801F22D0E9
:20118C00801F20D0C01E28D11DE0B7F158000AD00C380FD0401F0DD0801F04D0801F18BFBE
:2011AC00B0F1030019D1E41C24F00304241D34F8040C0EE0E41C24F00304241D54F8040C57
:2011CC004FEAE07A07E0E41C24F00304241D54F8040C4FF0000A8146A346CB1748465446CE
:2011EC000143234308BF002903D101990B09C0F05181642F18BF692F08D1002C06DA01233A
:20120C0040424FF00001919361EB040405A900913B462146FFF7E4F90399401C814227DAD2
:20122C009DF81070782F03D0582F18BF702F11D1019908090FD3702F08BF7827059807708E
:20124C000598401E05903021017005989DF81070401E059001996F2F40F01C810809C0F0C5
:20126C00198105984278302A00F014813021F6E0059930220A700599491E0591CCE7384635
:20128C00A0F16101192998BF2038DDF85482B84208BF4FF00108E01D20F007000830834695
:2012AC00083803C847F6F07347F6F07E03EA11439E4510D1969C0A46002312001343002298
:2012CC001C4040EA02024FF0FF3303EA020208BF002A40F0A780949C002C40F0A380734666
:2012EC000FF2C02C03EA11439E450FD1979C0A4600231200134300221C4040EA02024FF0F8
:20130C00FF3303EA020208BF002A33D0959C002C30D19CE80C0007F06FF803D2012281F0F5
:20132C0000419292B7F141021FD0121F15D0521E0ED0521E07D01A3A17D0121F0DD0521EFE
:20134C0006D0521E0FD101AA05ABFFF7EEF908E001AA05ABFFF784FB03E001AA05ABFFF737
:20136C00B7FB9DF81070019994E001AA05ABFFF726FC2CE09CE80C0007F03EF829D3B8F1AB
:20138C00000F14BF4621662105988DF81412B8F1000FA0F10100059014BF4E216E21017008
:2013AC000599B8F1000FA0F10100A1F10101059114BF49216921017005992B27491E0591EA
:2013CC00032400F8017C05989294401E059001995EE0B8F1000F14BF4621662105988DF83C
:2013EC001412B8F1000FA0F10100059014BF4E216E2101700599B8F1000FA0F10100A1F120
:20140C000101059114BF49216921017005992D27491E0591042400F8017C0199DDF814C021
:20142C00929432E0B8F1000F14BF4E216E2160468DF81412401EB8F1000F059014BF4121AE
:20144C00612101700599B8F1000FA0F10100A1F10101059114BF4E216E21022292920170F1
:20146C000598401E05907CE7E41C24F00304241D14F8043C0F46A34603B901278DF81432D8
:20148C000199939721F0020101916046401E05909DF810700598752F00F101022AD06F2F5B
:2014AC0028D0782F26D0582F24D0702F22D0929F1FB17F1E1ED10123919301F00203919F84
:2014CC0090931FB98B0808D32B2100E02D21017005980199521E401E0590909C274309D1A2
:2014EC00C80807D305982021017005980199521E401E059048080ED2059C0298ADEB040145
:20150C0001F21521884206DB8F9F06A8241AE419A4F5FE7400E006AC1146959A20464FF408
:20152C00FF730BF0BBFD939F059027B18A9901700598401C05908F99814209D30A46121A76
:20154C002021401E521C07F01CFA8F988A990170019840092AD306A8A0422ED006A8221A53
:20156C00302106A807F00DFA9DF81000782810D058280ED070280CD0909F9198074302D1F6
:20158C000198C00819D320788DF818003027277013E00198000910D360788DF8190030278A
:2015AC0067700AE0000000000000000006A8241A2021224606A807F0E4F906A80CF0B6F8EF
:2015CC00939F0246D21904E046A00188012206AF39808D9B8B9906A898472D1877E0E01C45
:2015EC00039C20F00300001D50F8048C8346B8F1000F3AD0DDF80890002C06D440460CF0B8
:20160C0095F8A04288BF201C02D840460CF08EF804464C45A8BF81464D44A1450BDD780802
:20162C0009D2A9EB0407002F05DD8C9A8B99202090477F1EF9D1002C07DD274618F8010BB2
:20164C008C9A8B9990477F1EF8D10198A1453EDD40083CD3A9EB0407002F38DD8C9A8B99D9
:20166C00202090477F1EF9D131E08C9A95988B9990472CE007F4EC67B7F120001FD0E03858
:20168C0012D0B0F5807007D0E41C24F00304241D54F8040C056019E0E41C24F00304241D7E
:2016AC0054F8040C057011E0E41C24F00304241D54F8042C2846E91782E8030006E0E41CC3
:2016CC0024F00304241D54F8040C0580A34630688E9981423FF6BEAB7FB028461AB0BDE8AC
:2016EC00F08FC046250070470EB500928DF80610ADF8040000208DF8070029E29DF8060092
:20170C00102805D10099AD48102206F023F85FE218208DF807005BE29DF80600102805D1F3
:20172C000099A948102206F015F851E218208DF807004DE29DF80600042804D10098AC498F
:20174C000068086044E218208DF8070040E29DF8060001283ED1A7480078012836D0A6484A
:20176C0000788DF808000098A349007808709DF8080080B1A048007868B9AD4800780228FE
:20178C0004D0AB480078052840F02282A94800780BF08AFB1CE29DF80800002840F0188287
:2017AC0095480078002800F01382A1480078012808D09F480078042804D09D4800780528D0
:2017CC0040F0068201200BF0CDF901E212208DF80700FDE118208DF80700F9E19DF80600AB
:2017EC00012846D18448007801283ED0814800788DF8080000987F49007808709DF8080067
:20180C00A0B17C48007888B989480078032808D087480078072804D085480078052840F0B6
:20182C00D781844800780BF03FFBD1E19DF80800002840F0CD816F480078002800F0C88146
:20184C007B48007801280CD079480078042808D077480078062804D075480078052840F034
:20186C00B78101200BF07EF9B2E112208DF80700AEE118208DF80700AAE19DF8060002289D
:20188C0004D10098AF4900880880A1E118208DF807009DE19DF806001F2819DCAA48002119
:2018AC001F2207F06EF800999DF80620A64805F051FF9DF80600A54908705E48A349A24B77
:2018CC0000780A78012107F047FB8DF807007FE118208DF807007BE19DF806001F2819DCC4
:2018EC00BD4800211F2207F04CF800999DF80620B94805F02FFF9DF80600B84908704D4819
:20190C00B649B54B00780A78002107F025FB8DF807005DE118208DF8070059E19DF8060027
:20192C00012808D100980078042804DC0098AC49007808704CE118208DF8070048E19DF851
:20194C000600012808D100980078032804DC0098A449007808703BE118208DF8070037E1EB
:20196C009DF80600062806D100989F4902680A60808888802CE118208DF8070028E19DF8E8
:20198C000600012808D100980078072804DC00989649007808701BE118208DF8070017E1F5
:2019AC009DF8060001280BD100980078032807DC00988F49007808700AE1C0466C3200204E
:2019CC0018208DF8070003E17C3200209DF80600012808D100980078062804DA0098854966
:2019EC0000780870F4E018208DF80700F0E0C04650320020AF090020AE090020009800880C
:201A0C00ADF808009DF8060002280DD1BDF80800062809DBBDF80800B0F5486F04DCBDF8ED
:201A2C00080075490880D3E018208DF80700CFE04C3200204432002000980088ADF8080025
:201A4C009DF8060002280DD1BDF80800062809DBBDF80800B0F5486F04DCBDF808006749A2
:201A6C000880B5E018208DF80700B1E000980088ADF808009DF80600022809D1BDF80800BF
:201A8C00B0F5FA7F04DABDF808005D4908809FE018208DF807009BE000980088ADF80800C8
:201AAC009DF8060002280DD1BDF808000A2809DBBDF80800B0F5486F04DCBDF80800514954
:201ACC00088085E018208DF8070081E0009800788DF808009DF80600012819D19DF8080000
:201AEC00012815D148480BF079FA68B94149002005F03EFA8DF807009DF80700002867D14D
:201B0C0042480BF0EBFD63E016208DF807005FE018208DF807005BE0BDF8040028280CDA1A
:201B2C009DF80600022808D10099BDF80400098809F04CF88DF807004AE002208DF8070077
:201B4C0046E0C046B009002050090020B2090020BDF80400A0F201301A28DDD801A151F8C2
:201B6C0020008746091700002517000041170000251B00005B17000087180000A1180000AE
:201B8C00E5180000291900004B1900006D1900008B190000AD190000251B0000251B000026
:201BAC00D9190000091A0000451A0000791A0000A51A0000251B0000251B0000251B000093
:201BCC00251B0000D91A0000251B0000E91700009DF807000EBDC0466F090020B3090020A5
:201BEC0054320020553200208F0B00205632002057320020E80A0020EA0A0020EC0A002045
:201C0C00EE0A0020F00A0020743000205030002000B5ADF11C0D009000208DF80400A34882
:201C2C0001780098A64A80785054A0490878401CC0B208709D4900F01F0008701AE200984B
:201C4C000290029840788DF80C009DF80C00E8B9A04A0220102108F0F3FD9F4A032010215F
:201C6C0008F0EEFD02989D49C01C02680A60808888809B49012008709A489B499B4B007894
:201C8C000A78012107F068F98DF80C009DF80C0010B193490820087001208DF8040015E22C
:201CAC000098029002984078002828D10298C07850B1A9498B48A94B0A780078002107F0DD
:201CCC004BF9029948701AE085480078022816D083480078072812D081480078062803D17B
:201CEC00A648007801280AD17D480078032806D0A3480BF073F910B901200AF033FF02982E
:201D0C004078002800F0E28175490820087001208DF80400DAE1009802900298407800281D
:201D2C003CD100988078032812D16D480078062803D16B490720087033E0AB48007818B123
:201D4C006749022008702CE065490320087028E0AD48008858B1A448007810B987480078D6
:201D6C0080B1A9480188864809F008F80AE09E480078012803D19C490020087002E07F4979
:201D8C000020087056480078072803D154490620087006E052490420087002E0504908208B
:201DAC00087001208DF8040090E1009802900298407800283CD10298AD49001D02680A6052
:201DCC00808888800298B549408908804449062008700298B249C08908800298B149008A4F
:201DEC0008800298B049408A08800298AF49C0780870AF480078012803D0AD480078022826
:201E0C000CD11F2008F0BEFEADF80C00BDF80C004FF47A714143B74808F0B0FF0298029AE6
:201E2C000299C07852890423091D07F04BFE0DE002984078312806D16B490020087028492F
:201E4C000420087002E026490820087001208DF804003BE1009802900298808809F00FFE51
:201E6C0083480021062206F08CFD8D49002008808C49002008808C490020088002989E49CA
:201E8C00807908709B480BF029FC9C480BF026FC01208DF8040081494FF6FF700880374892
:201EAC00007828B10E49032008700FE12133002002988079082805D109490520087004E003
:201ECC004431002006490420087001200AF04AFEFCE0C0466C3200207C320020A8320020AB
:201EEC004C32002044320020B2090020500900200098029081480BF0F1FB029840780028FA
:201F0C0040F0E48002986649C08808800298654900890880029864494089088075480BF05F
:201F2C005DF8002840F0D28075480068002800F0CD8073485B4900685B4A03680988584804
:201F4C00128800889847C1E0009802900298808805210AF007FDB9E0B30900206F090020D6
:201F6C000098029002988088ADF80C0050480078052807D100208DF8160075E0AF090020DB
:201F8C002C30002001208DF816005A480BF0A6FB47480078012803D04548007804283AD180
:201FAC00584802990088C988884202DD5548008801E00298C088ADF80E00534802990088FF
:201FCC000989884202DD5048008801E002980089ADF810004D48029900884989884205DDAB
:201FEC004A48008804E0C046AE09002002984089ADF812004648029900888989884205DD71
:20200C004348008804E0C046B009002002988089ADF8140028E026480078032803D024482A
:20202C000078022810D137480088ADF80E0036480088ADF8100035480088ADF81200344864
:20204C000088ADF814000FE00298C088ADF80E0002980089ADF8100002984089ADF81200BD
:20206C0002988089ADF8140003A80BF049F82DE0950B00200098807805281BDC05283FF430
:20208C0094AE00283FF4DBAD801E3FF409AE401E3FF441AE401E3FF43EAE17E0B4090020B6
:2020AC00B6090020B8090020BA090020BC090020E80A0020801F3FF4CDAE401E3FF418AFD5
:2020CC0008383FF441AF801E3FF44AAF9DF8040001280CD10F48006848B10E48006800684A
:2020EC0028B10C48006801680B480078884707B000BDC04650300020BD0900207430002078
:20210C00C4090020EA0A0020EC0A0020EE0A0020F00A0020C00900204C32002000B5ADF190
:20212C00A40D00200490B3480690B3480178480000EBC100B04949784018A0F50470029088
:20214C00AD48C178480000EBC100AB4909794018A0F504700390A84880782C280AD1A648E2
:20216C0040792C2806D10298632803D80398632840F20881012004902BE1012003F090FE2B
:20218C0027E1029A07A8B0A107F00CFC07A808F0D1FD00200590059842F21071814211DD63
:2021AC00069809F0DFFB9BA20CCA04F00FF806F065FE06900598401C0590059842F21071C5
:2021CC008142EDDC95480068804702E1029A07A8A8A107F0E7FB07A808F0ACFDFEE705F0E1
:2021EC00F7FF9148006809F0BDFB8D4A8D4B8DE8030012681B6807A8AEA107F0D3FB1A20CA
:20220C008DF89C00E5E089480078062803D087480078072812D18648006838B10D208DF858
:20222C009C00AFA107A80BF0F7F8D2E00C208DF89C00B2A107A80BF0EFF8CAE00B208DF8D0
:20224C009C00B6A107A80BF0E7F8C2E07B48006800907B48774A0068774B019012681B685D
:20226C00B2A107A807F09EFB14208DF89C00B0E0744907A8142209F0E7FB00208DF8300089
:20228C0015208DF89C00A4E0D54907A8142209F0DBFB00208DF8300016208DF89C0098E0E2
:2022AC005549CF481422891D09F0CEFBCD4900200870CB49142207A809F0C6FB00208DF8B9
:2022CC00300017208DF89C0083E0C74907A8142209F0BAFB00208DF8300018208DF89C0036
:2022EC0077E04549C0481422891D09F0ADFBBF4900200870BC49142207A809F0A5FB002025
:20230C008DF8300019208DF89C0062E047480078062803D045480078072823D1444800683C
:20232C00C0B14349002008603349B148FA22891D09F08AFBAE49002081F80001AD49087850
:20234C00401C08701E208DF89C0007A883A10BF063F83EE00C208DF89C0086A107A80BF0D9
:20236C005BF836E00B208DF89C008AA107A80BF053F82EE058208DF89C008DA107A80BF0FD
:20238C004BF826E09DF80C00332815DC33283FF46FAF14383FF4F1AE15383FF434AFC01EF0
:2023AC003FF4EFAE401E3FF411AF401E3FF417AF001F3FF44BAFDDE734383FF465AF401E78
:2023CC003FF46EAF401E80D0401E8AD0401F9DD0D0E7049890B10298642805D202985921CA
:2023EC0079A204F007FB0FE06320592176A204F001FB09E0AE47813F401600209DF89C1077
:20240C00029807AA04F0F6FA7B490120086029B000BDC04672C45A7C0A00F03F60000010E3
:20242C001C33002014330020E832002025330020F80A002000330020F4320020F832002003
:20244C0010330020640A0020253032642C39392C202A2A2A20526573657474696E672074C3
:20246C00686520424C4520426F617264202A2A2A00C046C0253032642C39392C2A2A2A20D1
:20248C00464F5243494E472041205761746368646F672054726967676572206261636B20B1
:2024AC00746F20426F6F746C6F61646572202A2A2A00C046537461636B3A2025642F2564CD
:2024CC00206279746573203D2025362E326625252020202057443A44495341424C45440034
:2024EC00436F6E6E6563746564202D20526561647920666F72204461746100C0436F6E6E8C
:20250C006563746564202D204E6F7420526561647920466F72204461746100C04E6F742005
:20252C00436F6E6E656374656400C046436F64653A2530387820204150503A2530387820BC
:20254C0020424C4520537461636B3A2530387820204E56443A2530387800C0464461746140
:20256C002073656E7420746F20424C4520436C69656E7400424C4520636C69656E74204E20
:20258C006F7420726561647920666F72204461746100C046424C4520636C69656E74204E30
:2025AC006F7420436F6E6E656374656400C046C0436F6D6D616E64204E6F74205265636FFA
:2025CC00676E697A656400C0436F6D6D616E6420466F726D6174204572726F7200C046C076
:2025EC004F0A0020630A00203A0A00204E0A00201805002022330020F40A002010B5ADF1BA
:20260C00200D019100907C4803900198C00B28D30BF036FB0490B2480BF0A8F90290029827
:20262C008069059004980BF027FB0598800813D2029888B10299059A8869904388610298F9
:20264C00406848B1029802994468059A0298B1F91C10C0680023A047019820F480400190AD
:20266C00FCE101988008C0F0A680A5480BF07EF90028029000F08F80029807F0F3F902984B
:20268C008069049002980021816102984068002830D00498002106AA40F0020082E803009E
:2026AC0014E000204FF0005106AA82E8030017E000204FF0804106AA82E8030010E0002009
:2026CC004FF0805106AA82E8030009E00298C07F00F00700401EE4D0401EE9D0801EEED083
:2026EC0006AA0CCA0298029944680298B1F91C10C068A0470BF0C4FA0590B248B149B0F9FD
:20270C000000401C6FF31F3008807D4800681F30017821F080010170794809F08FFF05983B
:20272C000BF0AAFA0298C068A649B0F99400B1F9001088422FD1B348007860BB0298C0682C
:20274C0090F8960018B90298C068006840B90298C068002180F89610002006F055F81AE0FD
:20276C00AF4800680068B0F1FF3F14D00298C06870300BF0A5F9029AAA49D2680968126814
:20278C00B2FBF1F10BF074FA0298C06870300BF097F90BF069FA019820F00200019058480E
:2027AC000BF0E4F80028029000F05881019840F00200019052E10198800FC0F09380AC4845
:2027CC000068002839D004200AF0A6FB002834D00AF04EFFA7490860A548A6490068096815
:2027EC0088420BD2A2480168A2480068401A0099000BC8600CE0C046243100209C480168A7
:20280C009C480068401A009900F1FF30000BC8600099C86800F58D70C8600098C06840F641
:20282C00C411814205D30098C06840F2EE21814203D9009840F6C411C1608D49002008605A
:20284C0000988069A8B18C48007810F00F0F10D10098408C40F6090181420AD10098806984
:20286C000490049C00986FF4807100224FF00073A04782480BF014F9814900220BF071F94E
:20288C008048007860B10220ADF8100004A80AF0D9F8BDF81800039988837A4900200870BE
:2028AC0079490120087079490878401C087078490020087019200BF035F80098406948B1A7
:2028CC00009840690490049C0098002100224FF08063A047019820F000500190BEE0C04665
:2028EC00FC3100206B48007860B10198000909D3684900200870019820F008000190ADE0AD
:20290C000032002001980009C0F08E805E49002008706149012008700020FDF7EBFD5F48D4
:20292C000AF06AFE55480BF0BBF85D4900220BF018F95C48007810B152480078E8B15949E0
:20294C0001200870584940F6090008804A484A49007820F00F0040F0010008705349002049
:20296C0008805349087820F00F0008705149002008604D48504908604DE050480068002803
:20298C0042D00AF075FE4E490860394801684C480068401A4A49000B0860494849490268DA
:2029AC000868801808604548464900680968B1EBC01F09D244480BF0B3F84FF000510AF094
:2029CC00DBFC28E0063200203E4900200860364940F60900088028482749007820F00F00E8
:2029EC0040F0010008703149002008803049087820F00F0008702F49002008602A482E4987
:202A0C00086008E08E0900202F480BF089F84FF000510AF0B1FC019820F0080001901DE03A
:202A2C00702F0020B0E100000198800B16D327480AF09CFF0290029860B10298406848B1B1
:202A4C000298029944680298B1F91C10C06800222023A047019820F400500190019828B1A5
:202A6C0019480BF05DF801990AF086FC08B010BD802F0020842F002029320020BC310020D4
:202A8C00E94E0000952F0020742F00207D2F0020962F0020992F0020972F0020198600002E
:202AAC0059C10000942F00201C3200201E320020283200202032002000100440902F002010
:202ACC00882F00208C2F0020082F0020F831002000B5ADF1240D8DF81620ADF81410009000
:202AEC0089480AF043FF0190884802909DF816100020490800D301208DF8170003208DF866
:202B0C0018000BF0BDF80390BDF91400B0F1FF3F11D17F48006828B17D480068808BADF8DE
:202B2C00140005E07B48B0F90000401CADF8140002980021C177BDF9140006F01FFC0490AD
:202B4C000498002840D072480499006888423BD19DF81600800805D36B48006801906A4996
:202B6C00002008609DF81720049901209040CA7F1043C8770BF074F807909DF8170008B129
:202B8C00654800E0654809F05DFF03980BF074F89DF81600800810D3019870B10199C87FE7
:202BAC0040F00400C87701A809F048FD01465C4806F0E6FC01980028F0D107980BF04CF88C
:202BCC0083208DF818009AE00498002800F094800498019988422AD152480AF071FF0AF06E
:202BEC0045F89DF81600800803D347490020086004E04548006844490068086003980BF09F
:202C0C003BF80199C87F40F00400C87701A809F015FD0146424806F0B3FC019818B19DF800
:202C2C0016008008EDD283208DF8180047E0019800283DD0019904980968884232D1394801
:202C4C000AF03EFF0AF012F80198006807909DF81600800805D3019800210160079801903F
:202C6C0008E0079801990068086007980021016007980190019870B10199C87F40F0040037
:202C8C00C87701A809F0DAFC0146254806F078FC01980028F0D103980AF0EEFF83208DF827
:202CAC00180005E001980068019001980028C1D19DF81800832802D003980AF0DDFF1A4829
:202CCC00007830B119480AF02BFF02210AF054FB15E01748007890B916480AF08DFC13484D
:202CEC000AF01EFF02210AF047FB1348007830B912480AF081FC02E003980AF0BDFF9DF8FD
:202D0C00180009B000BDC046F431002024310020F8310020063200200100020401000104AB
:202D2C0000320020C02F0020962F0020082F0020972F002009260000742F0020C15F0000F2
:202D4C000EB50091ADF8040000208DF80600A6E07848009900780870E8E00098764910229F
:202D6C0004F0F8FCE2E000987449102204F0F2FCDCE07348009900680860D7E0714900984B
:202D8C000A68026089888180D0E06F48009900780870CBE06D48009900780870C6E06C480E
:202DAC00009900880880C1E06A4900980A786A4904F0D0FCBAE0694900980A78684904F072
:202DCC00C9FCB3E06748009900780870AEE06648009900780870A9E0644900980A680260F0
:202DEC0089888180A2E062480099007808709DE0604800990078087098E05F480099008812
:202E0C00088093E05D480099007808808EE05C4800990088088089E05A48009900880880FE
:202E2C0084E059480099008808807FE057480099008808807AE0564900980A6802608988BB
:202E4C00818073E053480099008808806EE0524800990088088069E05048009900880880B3
:202E6C0064E04F480099007808705FE04D480099007808705AE04C4800990078087055E0F9
:202E8C00BDF80400282806DABDF8040007F07AFE009908804AE002208DF8060046E0BDF842
:202EAC000400A0F540701D28EAD802A151F820008746C0465D2D0000672D0000732D000019
:202ECC007F2D0000892D0000972D0000AB2D0000B52D0000C32D0000D12D0000DB2D000010
:202EEC00E52D0000F32D0000FD2D0000072E00008D2E0000112E00001B2E0000252E00009F
:202F0C002F2E0000392E0000432E0000512E00005B2E0000652E00008D2E0000792E000073
:202F2C00A12D00006F2E0000832E00009DF806000EBDC0464D3200206C3200207C320020D2
:202F4C0050320020A8320020AE090020AF090020B0090020B209002050090020B309002011
:202F6C006F09002054320020553200208F0B00205632002057320020B4090020E80A002066
:202F8C00EA0A0020EC0A0020EE0A0020F00A0020950B0020B6090020B8090020BA09002066
:202FAC00BC0900204C320020BD09002000B5ADF15C0D05F06DFB05F0F1FE8449086084489E
:202FCC0009F0A0FD834901200860834800F01CF902F032FD8148006803688148012101225F
:202FEC0098477E48006842687D48012190477E4803684FF4704100220020984779490860E0
:20300C007948036800204EF6FF7100229847774908607548036800224FF480314FF470404A
:20302C009847734908607048734903680022002098477049086005F0C5FF04F03DFB08F083
:20304C00B1FB08F073FC29A000902BA0019067480068029069485BA20CCA19A106F0A2FC21
:20306C00664807F067FE59480068172812D2574800680A21B0FBF1F2544803680A21B3FB6E
:20308C00F1F048431FA11B1A03A806F08BFC03A807F050FE5A4807F04DFE09F083F818B18A
:2030AC002DA007F047FE02E039A007F043FE0AF0CFFD544800688047002017B000BDC046CD
:2030CC0030302C39392C20424C45205665722025342E3266202025732020257320204352B6
:2030EC004333323D30782530387800C04D617920323120323031380031353A35303A313637
:20310C0000C046C030302C2039392C20424C4520435055204561726C7920726576697369C9
:20312C006F6E206465746563746564202825642E256429202D20424C45204D6573736167D3
:20314C006520525820756E6C696B656C7920746F20776F726B00C04630302C2039392C422F
:20316C006F6F746C6F6164657220697320456E61626C6564202D20416E792052455345547B
:20318C002072657475726E7320746865726500C030302C2039392C4E4F5F52454C454153F6
:2031AC0045202A2A2A2A20426F6F746C6F61646572206973206E6F7420656E61626C656473
:2031CC0000C046C09A9999999999B93FFC320020495000001C0B0020B4E00000D8010010E3
:2031EC0000400340F43200204800001000330020F832002010330020FFEF0100582B002010
:20320C00E0DF00006000001000B5ADF1940D20900020239002F09EFC07F0FCFC012807D180
:20322C0009F09EFF022803D1239840F0010023907448006800F44000800D012809D17248AD
:20324C00006800F07F40010E012088402399084323906E48007808F021FF6D490860002015
:20326C0021906B482199006888420BD92198694AFF2111542198401C219065482199006888
:20328C008842F3D800202290219036E02198209951F8200000F0FF00FF282BD02198209996
:2032AC0051F820005A49096800F0FF0081420AD92198209951F82000012100F0FF00814043
:2032CC002398014201D002209AE02198209951F82000012100F0FF00814022980143229119
:2032EC00209921984B4A51F820009DF8841000F0FF0011542198401C21902198209951F854
:20330C00200000F0FF00FE28C0D1092003F00AFB20984149086017A80AF0F1F801208DF8C8
:20332C0074003E48012117AA0AF08EFC00202190374821990068884237D921990120884031
:20334C002399084205D02199354A042042F8210023E02199012088402299084209D0219891
:20336C002C49085C209951F820102E4802F0CEFA07E021992B4801F0FF0141F4C04102F0D9
:20338C00C5FA21984FF0FF3100F0FF0007F08AFC2199234A002042F821002198401C219066
:2033AC001B48219900688842C7D801A80AF04AF81D4800780990002000901D4A1B4810210D
:2033CC0001AB0AF03DFC0DA80AF0BEF819480068139000201490184818490DAA00230AF0D8
:2033EC002BFC17481649006820F47C5040F4005008601449012008601349012008600020BD
:20340C0025B000BDB43F0050A83F005024330020C032002004310020542A0020A031002027
:20342C00202D0020007FC76770E1000084310020D5C0000074E10000D42E0020658B000044
:20344C00003009400C4009400800094090B503AFADF11C0D02938DF81620019100900AF0D7
:20346C000FFC04907848B0F900107648B0F90000401A00F580506FF31F30082811DA71481D
:20348C007049B0F90000401C6FF31F3008806D480088ADF81400BDF9140007F059F903908D
:2034AC0005E004980AF0E8FB6FF00100C8E0009870300AF005FB09F0D9FB0198039988607E
:2034CC009DF8160003998877029803994860BDF814000399888300980399C86097E8180059
:2034EC005A490398202222401030194080E8060003980021C1775648006818B354480399DA
:20350C0006F03EF870B94F484E49B0F9000000F6FF706FF31F30088004980AF0ADFB6FF038
:20352C0001008DE0BDF814000099A1F894000399C87F40F08000C87704980AF09DFBBDF9CC
:20354C0014007DE04248039906F01AF870B93D483C49B0F9000000F6FF706FF31F30088046
:20356C0004980AF089FB6FF0010069E0BDF814000099A1F894000399C87F40F08000C8771B
:20358C000099002081F896003248007878B13248007860B13149012008702E490020087017
:2035AC002F49002008702F490878401C087004980AF062FB2C48006800283FD12648007836
:2035CC0018B119200AF0AEF938E028480078002834D10AF055FB04902548007830B12549FD
:2035EC000120087004980AF047FB27E00398806805F090FE20490860B8B122480AF060FA49
:20360C001E490968CA681C490968891A1C4A1268B1FBF2F10AF02CFB1A480AF051FA0AF0EA
:20362C0023FB04980AF028FB08E004980AF024FB15480AF075FA042109F09EFEBDF91400C0
:20364C0007B090BD0432002006320020F1EFFF9FF4310020982F0020742F0020992F002057
:20366C00952F00207D2F0020F8310020962F0020972F00207E2F0020902F0020702F00200F
:20368C00B0E10000C02F0020082F00202DE9F04F0128ADF1140D40F0F280DFF81492D9F8FA
:2036AC00DC00012840F0E9800220C9F8DC000AF0BFFA0290012007F0A9FB20B10121064661
:2036CC00C9F8DC10D5E00AF0CBFA03906E484FF00008C0F80080012009F01EFC012818BFC1
:2036EC00CDF8008004D1404606F098FE0120009066486E4CC0F800801934D4F8FF0F1120E9
:20370C000AF074F900280CBF4646012610200AF06DF908B146F002060F200AF067F908B1C7
:20372C0046F004060B200AF061F930B1584800685849006B0246088890470A200AF056F9A7
:20374C000028404618BF01204FF0805B0BF5DC7528B128685049006B0246088890474F4899
:20376C000127076028688069014646F0200088474B4807600AF034F900F0010101914008DC
:20378C0015D248480AF0EBF88246BAF1040FF8D0BAF1010F06D1DBF8D801406802464148C4
:2037AC00032190474049086820F003000860404600F092F92868D4F8FF1F806B80470198C8
:2037CC0001280ED0BAF1010F06D1DBF8D801406802463448394690473349086840F00300B7
:2037EC0008602A480760286840690146304688470B200AF0FBF828B128682649C06A024655
:20380C00088890470A200AF0F1F828B128682249C06A024608889047204807600322C9F8C6
:20382C00DC201F4BC3F800802868406B0146304688470128F8D1042007F0E8FA1248076064
:20384C001A48D4F8FF1F01688909FCD30098012802D1384606F0E2FD0AF0BCF8082007F092
:20386C00D5FA06460398C9F8DC700AF0F5F906F00FFA02980AF0D8F902E0042600E001261A
:20388C00304605B0BDE8F08F0C40094000022243B80100107ADE000076DE000028200860AC
:2038AC00800104430040034024220840141009400003002000B5ADF11C0D7748774908F0A0
:2038CC0019F806F003FD08F099FD029074480068036807214FF4C042052098470AF05CF867
:2038EC00714809F0E3FE6F490860002070490090042001906D483222002305F0C3FF0120E7
:20390C006D490090042001906A484FF4FA72002305F0B8FF00206A490090042001906748A9
:20392C004FF47A72002305F0ADFF1F20062107F04DF901208DF816000020ADF80C00012037
:20394C008DF817005020ADF80E004FF44870ADF810000020ADF812004FF47A70ADF814002F
:20396C0001210DF1160240F20530FDF7BDFE40F20630022103AAFDF7B7FE524A4FF442707B
:20398C001321FDF7B1FE504A40F207300721FDF7ABFE4FF4447001210DF11702FDF7A4FEB6
:2039AC0040F2113002210DF10E02FDF79DFE40F21230022104AAFDF797FE40F21330022162
:2039CC000DF11202FDF790FE4FF44570022105AAFDF78AFE3D4A0020152108F0B9F9A020BA
:2039EC00ADF80C00BDF80C10062007F0EFF8BDF80C10072007F0EAF8BDF80C10082007F074
:203A0C00E5F8BDF80C10092007F0E0F80020039001208DF8100001208DF8110000208DF82F
:203A2C00120001208DF81300042103AA4FF4816006F0EEFD4FF48060012104AA06F0E8FD0A
:203A4C0040F2024001210DF1110206F0E1FD40F2034001210DF1120206F0DAFD4FF0FF30FB
:203A6C0009F0C8FE4FF0FF3009F064FF09F024FB06F080FF164808F0A9FB164808F050F98B
:203A8C000548007809F0C2FD0348007809F0C8FD09F0D0FD07B000BD8C3200209032002022
:203AAC00B4010010943200209C3200200830002031CB000098300020F5820000BC300020A2
:203ACC0071970000790A0020800B0020100A0020A00B0020200B00202DE9F84F82467A484D
:203AEC00DFF8D89135380068800880F0D88008F095FB054678480830D0F8008000244FEAE5
:203B0C002876761C5FEA98500AD2C5F13E0015F10A0F4FEAE000D8BF08208642B8BF061C10
:203B2C00634FD7F87C01C0F3046009F011FF83463868C0F3044009F00BFF06EB0B0200906A
:203B4C00162A05DA12F10A0FB8BF6FF0090200E01522584B584F02F01F0141F4F8511980B3
:203B6C00396811F0030F18BF0124C90828BF44F00204BAF1000F18BF44F00404494691F9B1
:203B8C000730EB1A052B04DA8B79A34208BF888864D0DFF82CE10F2DA5F10F0C25DB0CEB13
:203BAC000513A3F1F00C4FEA2C27072F88BF07273E46062E88BF06265EF82600042303EB5E
:203BCC0086037646F3581B1A03F0FF06E00824BFC3F307200644A00824BFC3F30740064458
:203BEC00600828BF06EB136601E0002637465EF827E0E0080EF0FF0324BFCEF30720034425
:203C0C00A00824BFCEF307400344600828BF03EB1E630098B6B2ACEB07277E43801A06F1E9
:203C2C00800603EB1623D8BF0120342208F0FF0742437A43B2FBF3F04FF6FF72824238BF7C
:203C4C00101C802D80B2888005DA15F1800FB8BF6FF07F0500E07F25CD718C71194A1268DB
:203C6C001F280A604FF0000208D340F2FF11814206D24008521C8142FBD301E01F2088801F
:203C8C00124F11490F38000942EAC00247EA0200C1F8FB0F0026C1F8FF6FBDE8F88F0D4F54
:203CAC000B4E494608203760891D0870BDE8F88F3C1100506E62084024220840B0320020C2
:203CCC009C130050082009403500094000E7A48030100940FDFDA400AC3F005000B5ADF12A
:203CEC004C0D0E910D900D98406810900D988068119009F0C5FF0F9010980078012804D18E
:203D0C000F9809F0B9FF0020D3E01098012101700F9809F0B1FF0E981099007848700E98BC
:203D2C001099407888700E981099406848600E981099806888600E981099C068C8600E981B
:203D4C001099006908610E981099007D08750E981099407D48750E981099807D88750E98DB
:203D6C001099806988610E981099007F08770E981099407F48770E981099807F88771098AD
:203D8C00002101621098002101631098002141621098002141631098002181621098002118
:203DAC0081631099002081F82C001099002081F82D001099102081F83C001099002081F866
:203DCC003D001198406802F0ADFD0D9802F0EEFB0D9802F0D1FCA0B937480068C1681198B7
:203DEC00006888471198406802F032FD09F048FF0F901098002101700F9809F03DFF0020F9
:203E0C0057E001A809F039FB0D9806901198007B099000201199294A00901098896801AB7F
:203E2C00683009F00DFF01A809F0A9FB0D9805901198006907901098214901AA002384301C
:203E4C0009F0FAFE01A809F074FB01208DF81C001098807840B91098002101AAB83009F0A4
:203E6C00F3FE1849109801611098407840B91098002101AAD43009F0E7FE13491098C16006
:203E8C0001A809F01BFB002006900020ADF814000D98079010980D490A2201ABF03009F0A4
:203EAC00BFFE10980D9B0A4A0421543008F0DEF90D9813B000BDC046D001001019460000B2
:203ECC000DA700004FC900002DC90000FD770000B5D300002DE9F0411C4615468C4208BF7F
:203EEC00854282BF00230022E5E0002C08BF002D0AD100290EBF00286FF000006FF00001CC
:203F0C0000F0E1F8BDE8F0815FF000085FF0000E002C08BF8D429CBF2C1C0025070C47EA34
:203F2C0001470E0CB44208BFBD429EBF5FEA044444EA15445FEA0545070A47EA01670E0A8D
:203F4C00B44208BFBD429EBF5FEA042444EA15645FEA0525470847EAC1774E08B44208BFE6
:203F6C00BD4200F29380870847EA81778E08B44208BFBD427CD8C70847EA4177CE08B4424F
:203F8C0008BFBD4266D8070947EA01770E09B44208BFBD4250D8470947EAC1674E09B44267
:203FAC0008BFBD423AD8870947EA81678E09B44208BFBD4224D8C70947EA4167CE09B442AF
:203FCC0008BFBD420DD8E60146EA5566EF01B14208BFB84201D3C01BB14158EB08085EEB77
:203FEC000E0EA60146EA95664FEA8517B14208BFB84201D3C01BB14158EB08084EEB0E0EF5
:20400C00660146EAD5666F01B14208BFB84201D3C01BB14158EB08084EEB0E0E260146EAFE
:20402C0015762F01B14208BFB84201D3C01BB14158EB08085EEB0E0EE60046EA5576EF00DC
:20404C00B14208BFB84201D3C01BB14158EB08084EEB0E0EA60046EA9576AF00B14208BF0D
:20406C00B84201D3C01BB14158EB08084EEB0E0E660046EAD5766F00B14208BFB84201D319
:20408C00C01BB14158EB08085EEB0E0EA14208BFA84201D3401BA14158EB08085EEB0E0E32
:2040AC00A34208BFAA423EBF2D0A45EA0465240A89D3734642461E4617460B4602463146F4
:2040CC003846BDE8F08170472DE9F843814609F07BFC002100B901216B4E30680028FCD0C0
:2040EC006C4D01242D1DEF6A346009B109F072FCDFF89881C7F3072008F1BC01086009F096
:20410C0063FC002100B9214630680028FCD02F68346009B109F05EFCC7F38440C8F8C00031
:20412C0009F052FC0146002001B92046014630680028FCD0ED69346009B109F04BFCC5F336
:20414C008120C8F8D000B9F5C061C8F8B81000F0968098F8D80068B9C8F8D410D8F8C00008
:20416C00C8F8C800D8F8BC70C8F8C470D8F8D060C8F8CC60D8F8D410D8F8BC60002954BFF3
:20418C0002206FF00100454605F1C8031A6801EB41014018411000EB917002EBA0021A60F7
:2041AC00D5F8C810C5F8C46000291CDD1E293DDDD5F8CC0030B93429B4BF15391E21C5F84E
:2041CC00C81025E02A29BABFD5F8C8000B381E20C5F8C800D5F8C4003F28B4BF401C3F2069
:2041EC00C5F8C4001FE0D5F8CC00032812D011F10B0FC6BFD5F8C8000B30201CC5F8C8005B
:20420C00D5F8C4000028CCBF401E0020C5F8C400032009E011F1150FC6BFD5F8C8001530BE
:20422C00201CC5F8C8000020C5F8CC00B5F8C400174E30214FF47F4208230090304606F0B6
:20424C000DFD009404214FF400321123304606F005FDB5F8C80004214FF4F80212230090DC
:20426C00304606F0FBFCB5F8CC0020214FF440620A230090304606F0F1FCBDE8F8830020DA
:20428C0088F8D800BDE8F88300800C400003002000A00C4000A00C4008B58DF800006C48DD
:2042AC009DF80010007888424CD09DF80000684908702CE0632024A103F044FD42E0632004
:2042CC0025A103F03FFD3DE0632028A103F03AFD38E063202BA103F035FD33E0632033A154
:2042EC0003F030FD2EE0632039A103F02BFD29E0632042A103F026FD24E0632045A103F027
:20430C0021FD1FE063204DA103F01CFD1AE09DF80000082816D802A151F820008746C0466B
:20432C00C1420000CB420000D5420000DF420000E9420000F3420000FD4200000743000040
:20434C001143000008BDC0464741502053746174653A20496E6974004741502053746174B7
:20436C00653A205374617274656400C04741502053746174653A20416476657274697369DD
:20438C006E6700C04741502053746174653A204E6F6E2D436F6E6E65637461626C652061F2
:2043AC0064766572746973696E6700C04741502053746174653A2057616974696E67202D7F
:2043CC00204E6F7420436F6E6E656374656400C04741502053746174653A205761697469BC
:2043EC006E6720616674657220436F6E6E656374696F6E2054696D656F757400474150207B
:20440C0053746174653A20436F6E6E656374656400C046C04741502053746174653A204346
:20442C006F6E6E656374656420616E64206164766572746973696E6700C046C0474150204F
:20444C0053746174653A204552524F5200C046C0FC0A00202DE9FC4F83F0004301E02DE971
:20446C00FC4F1F03FF0847EAD2574FEA42284FEA43095FEA595906D147EA080A1CBF002129
:20448C000020BDE8FC8F57F000575FF4E06E1EF1FF0EF14505D14FF00000190D0905BDE841
:2044AC00FC8F002B05D55FF0000AD8F100086AEB07070C03E40844EAD0544FEA40254FEAAF
:2044CC004106760D08D144EA050A19BF00210020191C101CBDE8FC8F44F00054764504D12E
:2044EC000020090D0905BDE8FC8F002904D55FF0000A6D426AEB0404B6EB090E08D5A24658
:20450C003C465746AA464546D046CEF1000E4E46BEF1360F5CBF4FF0000B23E0BEF1000F64
:20452C0004BF4FF0000B1AE0CEF1390ABAF120092EBF08FA09FB07FA0AFB4BEA080BDEF182
:20454C00200A07FA0AFA38BFBA4647FA0EF72DBF28FA0EF8AEF1200E4AFA0EF8D04415EBA4
:20456C0008057C4154EA050A02BF00210020BDE8FC8F002C58BF4FF0000A06D55FF0010A25
:20458C005FF0000E6D426EEB0404A6F101066D006441FAD515F4806E11D005F480794BEA24
:2045AC00090B15F5806554F1000428BF761C0BD205F400795BEA090B08BF25F4006525F424
:2045CC00E0656D0044EB0404B61CDEBF00210020BDE8FC8F5FF4E06E1EF1FF0E76450AD3B1
:2045EC004FF0000013F00043FF21C900C91D09051943BDE8FC8F270547EA1530210B41EAC8
:20460C00065141EACA71BDE8FC8F704700B5ADF11C0D0090002002900098406803900098C1
:20462C008068049004980068012108F04DFB019004980199006809F0B5F8019810F4F06FBB
:20464C0042D00198C00A33D30498006809F0B3F802900498006809F04DF90398806B202888
:20466C0001D9202001E00398806B05900098059902F0D2FF20E00098012102F0CDFF04980B
:20468C00006809F098F802900498006809F032F9029848B103980399006B401E08630399C9
:2046AC00486B401E486307E00399886B401E88630398806B0028DED19DF808000399C8779E
:2046CC00009804F025F84DE00198C00922D303990098896B02F0A0FF03998863039890F83E
:2046EC002D0048B10398002181630398843009F01DFA09F091FA35E00398806B18B1264833
:20470C00006800282ED00398843009F00FFA09F083FA27E00198400924D30398816B039836
:20472C0090F83C00401E814204D9039890F83C00401E01E00398806B05900098059902F0CA
:20474C006BFF0399059A886B801A88630398806B10B11148006828B10398843009F0E6F928
:20476C0009F05AFA0198800914D30398806A88B10398806A059003990098896A05F0A6FC41
:20478C00039988620398806A20B905990098091D04F090FE07B000BDD03200202DE9FC4162
:2047AC005E4C574D574EDFF860815A4F94F8E410481E0B2861D8DFE800F07B2C430623433A
:2047CC00062343067664042907D001220A2945F8212C14BF0220032004E02021012045F802
:2047EC00211C024684F8E200002045F8390C0827C5F8FF7FC5F8F37F45F8392CBDE8FC81CB
:20480C00052914BF09200620002584F8E400356070E094F8E1700120383D002FC5F81B0058
:20482C0004BF0620002102D00021F160032084F8E400032045F8010C31603068800859D252
:20484C0094F8E400012503280DD00021404660220523009106F002FA94F8E400062814BF69
:20486C000A200720D1E702200090002160220523404606F0F3F90420C7E709F0C9F9BDE80C
:20488C00FC812249002622480E60012505600E2001F0DEFF022007F08BFA84F8E45084F8D5
:2048AC00E360BDE8FC81002038600C2578601FE01948006800680146202088472C3D41F6A0
:2048CC001D560F2000214FF4C072072345F8010C4046C5F803600225009506F0BFF940468A
:2048EC0000214FF4C072072306F0B6FC0120386084F8E45004F1780009F0B6F9BDE8FC81A4
:20490C0039400C4038600C4000A00C402C500C4004800C4034600C40A001001000030020AA
:20492C0000B5ADF12C0D019100900198800FC0F09D80002003F02AFF4D49002008604E48D8
:20494C004C4908600120FBF7D5FD4C4808F054FE4B4940F60A0008804A49002008804A4961
:20496C00087820F00F00087048490020086048484749007820F00F0040F001000870009803
:20498C00806806900698002141800698079002E00798406807900798406830B107984068A9
:2049AC00008840F60A018142F2D13549079841600799487B20F00F004873364808F0D6FF56
:2049CC00806809900998008840F60301814226D00998008840F60401814220D00098008CF3
:2049EC00E8B10098203008900898002141800898002141600899087B20F00F000873089850
:204A0C000D30017821F00F0141F0010101701F49089808601E49087820F00F000870009889
:204A2C00806802A908F01EF802A808F043FF00988068FCF758FE0E4800680028FBD00C4916
:204A4C0000200860012008F067FA01280AD007980D30017821F00F0141F0010101700E48D5
:204A6C0008F0CAFD00980349806808600BB000BD1C1004400010044001010E0409260000B8
:204A8C001C3200201E320020283200202032002029320020F43100205199000000B5ADF143
:204AAC00440D03F095FB53484D49006804F01AFF12D25148006878B94E48006806F052FF15
:204ACC0002460B4668462EA104F06CFF4A49012008604A490120086046484249006804F0A8
:204AEC0001FF12D24648006878B94248006806F039FF02460B46684621A104F053FF3E49A9
:204B0C00012008603D49012008603A483649006804F0E8FE12D23B48006878B935480068C9
:204B2C0006F020FF02460B46684615A104F03AFF3349012008603149012008602D48006845
:204B4C0006F010FF29A20CCA03F099FC0CD22E48006848B9684615A104F024FF2A4901204F
:204B6C0008602649012008602448006828B1684606F0E0F821490020086011B000BDC0462A
:204B8C0030302C39392C5741524E494E47202D2D20424C4520537461636B20557361676531
:204BAC002061742025362E326600C04630302C39392C2053595354454D20554E5354414291
:204BCC004C45202D2D20424C4520537461636B20557361676520417420313030252500C010
:204BEC00000096420000B4420000BE429A99999999F95840E8320020D8320020DC090020E3
:204C0C00DC320020E0320020D432002000B5ADF11C0D01910090FEF74DFE632045A103F0C8
:204C2C0091F84FF4FA7007F09DFC02900298002868D1002003900DF1120103AA04A806F002
:204C4C00B9F9002858D101208DF81400BDF81000102819D13F489DF812100078884213D140
:204C6C0003980690069800884FF6FF71814206D106984088000907D304F0D4FD04E00398F5
:204C8C0006F0DEFC8DF814000398002834D09DF81400002830D0039807F040FC2CE02E48B7
:204CAC00006807F01FFB0590059828B318E02B4940F20E30FEF744F8C0B92848B0F90000C3
:204CCC004FF6FF71814211D02548007870B92348008807F067FE22490878401C087005E06E
:204CEC000598008841F20541401AE0D0059805F041FB059807F0B8FB1748006808F084FFA9
:204D0C000028CCD017480088C00809D31549088820F004000880144808F0D6FC07F012FF80
:204D2C001248006800283FF47CAF11480068804777E7C0460A0A2A2A2A2A205057442D42FD
:204D4C004C45205374617274696E67202A2A2A2A0A00C0468C320020943200209A320020C2
:204D6C00283300209832002008300020080B00206000001000B5ADF11C0D0191009001F038
:204D8C0021FB4FF0FF3007F0DBFB0290029800282CD1002003900DF1120103AA04A806F04C
:204DAC00E7F818BBBDF8100010281AD13E489DF812100078884214D1039805900598008894
:204DCC004FF6FF71814209D105984088C00B08D3364A0420042105F033FD02E0039804F00B
:204DEC0015F8039810B1039807F086FB3048008840083FD32E49088820F0010008802D48BC
:204E0C00007818B92C480078002833D02A48007818B103208DF80C000EE0284800788DF864
:204E2C000C00274800788DF80D0026490A680DF10E00026089888180234800788DF8140004
:204E4C00224800788DF815001748007803A908F039F878B11E49082008701E48006848B127
:204E6C001C480068006828B11A48006801681848007888470E480088800808D30C49088819
:204E8C0020F0020008801449002002F071F808480088C008FFF475AF0549088820F00400EB
:204EAC00088005F08DFD6CE74432002050320020AC090020AE090020AF090020543200202A
:204ECC00553200208F0B002056320020573200204C320020C0090020E80A00200EB5009028
:204EEC0008F056F902900298800829D348480068019028B3464900200860029A0198019965
:204F0C00006910408A69104340F0020088610198404902690868904308600198103090E8E2
:204F2C000C003D4908681A1C904308603B48019904F026FB3A4808F0F3FD022108F01CFA25
:204F4C00334800680190029880081CD201990298103106C90023014012EA030000D1002920
:204F6C0011D001982F490860029A01980199006910408A6910438861294808F0D1FD4FF49A
:204F8C00804108F0F9F92248006800283FD1264808F0ECFC0028019039D0244801990068D2
:204FAC00C968884207D01E4808F0BAFD4FF4805108F0E2F92BE00198806804F0ABF91C498E
:204FCC00086020B11A48006803F01EFC1FE0114901980A680069104308600198103090E8DC
:204FEC000C000D490A68181C1043086011490020086001981049806808600E4800680028D8
:20500C00FBD0094807F01AFB0198014908600EBDF8310020141004400C10044000320020E3
:20502C00082F0020FC310020F4310020702F0020902F00201C1004400010044000B5ADF1C6
:20504C005C0D8DF849108DF8480050494022684602F080FB4E48006818B39DF8480010A9BB
:20506C0004F058FF9DF8490011A904F053FF9DF840008DF81F009DF841008DF82A002C20B1
:20508C008DF82B009DF844008DF822009DF845008DF82D0000208DF82E002521684606F08B
:2050AC00CFFE0720002107F081FA0820002107F07DFA3348139000201590364915988142D4
:2050CC0010DD139806F04EFC2EA20CCA01F07EF803F0D4FE13901598401C15902D491598A6
:2050EC008142EEDC002014909DF8490014998842DFDD0720012107F059FA0820012107F06E
:20510C0055FA0020159023491598814210DD139806F028FC1BA20CCA01F058F803F0AEFE6E
:20512C0013901598401C15901A4915988142EEDC0720002107F03AFA0820002107F036FA92
:20514C000020159013491598814210DD139806F009FC0CA20CCA01F039F803F08FFE139056
:20516C001598401C15900B4915988142EEDC1498401C14909DF8490014998842B9DC98E7D2
:20518C000000803F0B7A6F0C0100F03F78DF0000EC320020E093040000B5ADF1140DADF8EF
:2051AC0008000020009000208DF80C00BDF80800001DADF80800FFE7BDF8080000F003005D
:2051CC008DF810009DF8100038B19DF81010BDF80800401A001DADF8080008F0F1F83E49A2
:2051EC000860BDF80800102803DC3C480068019002E03B480068019001980088ADF80A00BC
:20520C00BDF80A00000C09D3BDF80A0080F40040ADF80A0000208DF80C0020E09DF80C0067
:20522C0090B10198009902880888801808800099BDF808000988884211DC00980190019855
:20524C000088ADF80A001AE0BDF80800BDF80A10884214DD01208DF80C0001980090BDF83A
:20526C000A1001984018019001980088ADF80A00BDF80A000028C3D100200190FFE701980B
:20528C0010B3BDF80810BDF80A00401AADF80A00BDF80A0004280FDBBDF808100198401817
:2052AC000490BDF80A0004990880BDF80800019940F40040088004E00199088840F4004095
:2052CC0008800198001D01900348006807F0CCFE019805B000BDC046083200200C320020B6
:2052EC001032002080B502AFADF1180D029301920091ADF80C0006208DF80E00388800288C
:20530C0001DD0B2086E00098007802287AD100980099406849684078097800F0FF0001F0EA
:20532C00FF0101EB0021ADF8101062E0B88800280BDD0298012101800098C16801980978E5
:20534C00017000208DF80E0062E00D208DF80E005EE0B888B0F5847F40DC2F482F49006882
:20536C00401808F0E3F90590B8880599884218D22B4901200860B888029908802649274A8E
:20538C0009688918029A0198128802F0E3F92249BA8808688018086022490878401C087076
:2053AC0018E0BDF81400029908801B491B4A09688918029A0198128802F0CCF9184900201B
:2053CC00086019490120086013490020086013490020087000208DF80E0019E00D208DF838
:2053EC000E0015E00298002101800A208DF80E000EE0BDF810004FF6E971401A96D0401E35
:20540C00A7D0EFE702980021018001208DF80E009DF80E0006B080BDDC0A0020180500206A
:20542C00CC32002022330020F80A002000B5ADF1340D009008F0E4FB0190019804F06EF82C
:20544C000290002003900020049008F023FB8DF820009DF8200018B19DF82000012802D15D
:20546C006FF004007EE0029810B96FF0040079E00098406810B90020059012E00098406850
:20548C00B0F1FF3F03D14FF0FF30059009E00098406805A904F072FB0790079808B1079884
:2054AC0060E00120079008F0A7FB0599401806903FE008A804F0B6FE0790079800BB9DF8C5
:2054CC0024000BA904F088FBB0B9009883689DF826100A9ABDF82C00984768B1BDF82C005C
:2054EC00009988819DF82600009988730A98009908610020079023E00A9903A805F036F8E0
:20550C00012007900498401C04900598B0F1FF3F0FD0059868B108F06FFB0699081A0C906B
:20552C000C9868B105980C99884200D208E00C98059002980599406808F05AFB0028B8D1C5
:20554C0002980399083005F0ADFA049848B10298406808F049FB0498401E049004980028D0
:20556C00F5D107980DB000BD00B5ADF13C0D00F0F1FA3449086840F00200086001A807F0A2
:20558C00F3FF31480078079031493048002301AA08F052FB01A807F065FF0020ADF81C009B
:2055AC002C480078099000202C4A00902A48192101AB08F045FB01A807F0D6FF2848007847
:2055CC0007902949274801AA002308F035FB01A807F048FF0120ADF81C002448007809900B
:2055EC000020244A009022481A2101AB08F028FB214822490022002308F012FB204807F098
:20560C00FBFF20480D900D984FF6FF7181831E49012008700D980021C1771C490020087026
:20562C001B49002008701B49002008701A49002008701A49002008701949002008600FB0C7
:20564C0000BDC04600200940A2E10000082F002059D00000A0E10000BC31002059C1000067
:20566C00A3E100003C2F0020D5620000A1E10000D8310020C18C0000C02F002061BC0000B4
:20568C00C15F000024310020952F0020942F0020962F0020972F0020982F0020992F002008
:2056AC00802F00202DE9FC4191EA03084CBF4FF000484FF000084FEA03354FEA1535560013
:2056CC006D414FEA43075FEA575711BF45F4001500210020BDE8FC814FF4E06E1EF1FF0E68
:2056EC0077456FD04FEA01334FEA133342005B414FEA4104640D11BF43F40013002100208F
:20570C00BDE8FC8174455DD0E41B002100205FF0360EAB4200D1B24205D340414941921B60
:20572C0063EB050301E040414941BEF1010E05D053EA020702D052005B41EAE7BEF1200FD3
:20574C0009D2BEF1160F0CD3CEF1200720FA07F100FA0EF00FE0AEF1200E00FA0EF10020EA
:20576C0009E001FA0EF1CEF1200720FA07F741EA070100FA0EF011F4001F02D14000494150
:20578C00641E401C51F1000111F4800F1ABF641C21F4800121F400114FF44077FF37E41906
:2057AC00DEBF00210020BDE8FC8107F58067BC4208D249084FEA300041EA045141EA0801B4
:2057CC00BDE8FC810020FF214FEAC101C91D4FEA015141EA0801BDE8FC8170472DE9F0419B
:2057EC00424C474D8046C8F38140401E02D0401E2AD025E0284620300168880C20D24FF4BC
:20580C00804020603A48D0F802204B0AC1F3033703F0800322F08F02134347EA0302C0F830
:20582C000220D0F801300E1266F30303C0F80130026801F0E70722F0E70247EA020102E07F
:20584C004FF00041204601602A4E06F108000068C0F3C0070FB94020A0624FF4007020643B
:20586C0008F030F840F0300084F8C800C8F3815038B3401E03D0401E1ED002211DE0012023
:20588C0007F04AFB07460420394605F04DF8042007F042FB8742FAD1366826F07F4006F041
:2058AC006FFA15480068036807214FF06022300E98474FF4806020600321042005F034F831
:2058CC0006E00420012105F02FF80C4806F058FA284600680B4947F6180700F03F0084F8A7
:2058EC00CB0F094E0F803068BDE8F08140A00C400A600840A83F0050B4010010BD378600DA
:20590C006C13005070B00C402C20094000B5ADF1140D01910090019800F0FF008DF80C00FC
:20592C000198000803D301993E48484001909DF80C103D4850F821000290019802994840BE
:20594C00009900220140480E00D301228DF80D2000990298884302900098019908403349BB
:20596C000140029801430291009800F4E020B0F5E02F02D10298400E22D3009810F4E02FCE
:20598C0015D19DF80D00D8B111E0029820F4E0200290029840F4A020029011E0029820F4FA
:2059AC00E0200290029840F4C020029008E0029800F4E020B0F5A020F0D0B0F58030E4D065
:2059CC009DF80C201848029940F822100098C00D09D30198C00D01D3012000E000209DF864
:2059EC000C10134A50540098000E18D308F048F904909DF80C10012088400E4909688143FA
:205A0C000198000E04D39DF80C200120904000E00020084307490860049808F02DF905B0D8
:205A2C0000BDC046006000A000100840007F077F00200240D020024008B504F01BFB314866
:205A4C000068036810214FF4C042022098472D4800682D4A03680F21012098472B4807F097
:205A6C00A1FA2B494FF4E13008602A4900200870294900200870294903200870284900209C
:205A8C00087028490020087020490120087026490120087025490020087025490120087062
:205AAC0025482449086026482449086025480068804700901549002005F0E2FA2249086007
:205ACC002148006868B1204800682221002207F0FBFB1D4800682121002207F0F5FB05F0A1
:205AEC0005F901200021002208F07AF81749086017480168009888474FF4806002F0D8FAF0
:205B0C0008BDC046B401001000600020E0300020F8300020F5300020F6300020FC3000201A
:205B2C00FD300020FE300020E1300020F7300020F4300020EC300020A5B30000F03000202E
:205B4C0005D30000C40A0020EC320020C4320020C80A00202DE9F041444C94F8E700ADF145
:205B6C00280D00286FD1394F387B01250021242284F8E7507E6884F8E6000823C4F80C6165
:205B8C0001A808F029F8002604F10C00069601ABADF814602E490796324608F041F82D497C
:205BAC0004F1300001AB324608F03AF82A4904F1540001AB324608F033F8B868014628468E
:205BCC008847DFF89C8025487B7B0078D8F80410C1F381571BB1032F03D184F8E150032FFB
:205BEC0016D0022F14D0012F26D103201D4C009031464FF040521C23204605F02FF80095BD
:205C0C0031464FF400720923204605F027F813E0022006F0E5F8032F0CBF4FF47A7142F25F
:205C2C001071114800685434B1FBF0F1204608F01FF8204608F018F8D8F80000C00802D2B2
:205C4C00304606F0CDF80AB0BDE8F08104E10000174600004D810000918800002433002097
:205C6C00B03F005000A00C40B0E100000003002000B5ADF1140D019100903F4807F032FFF4
:205C8C004FF0FF3107F0B4FF0020029001208DF81000002003901DE09DF81100FF2816D014
:205CAC0036489DF811100068884205D99DF81100334951F8200018B100208DF8100016E095
:205CCC009DF81110012088400399084303900298401C0290019850B10298019951F82000E0
:205CEC0000F0FF00C0B2FE288DF81100D4D19DF8100010B90020009035E000980021016089
:205D0C00009800214160009800218160002002901CE09DF81100FF2815D09DF81110184A0B
:205D2C00009842F821009DF811200099012090404A68104348600298019951F82020114950
:205D4C00009805F0C9FA0298401C0290019850B10298019951F8200000F0FF00C0B2FE28A1
:205D6C008DF81100D5D1044807F0BCFE07F03CFF009805B000BDC046A0310020C032002099
:205D8C00202D0020007FC76700B5ADF11C0D029201910090009840680490009880680590C2
:205DAC0007F06EFF03900498806A28B1039807F063FF4FF0FF306DE00498F03006F056FFCB
:205DCC0004980021C177049901980862049800214162039807F050FF2F4806F0D1FC2F492F
:205DEC00086840F480700860029806900098029904F06CF90499886218BB0098069903F05B
:205E0C0059FB04988078002843D10498B83007F075FE0499896807F0EBFE78B90498002108
:205E2C00816204981021C1770599049801F0D4FF194806F093FC4FF0FF302BE00498406ACB
:205E4C0028E005980068202107F032FA04988078F8B90498B83007F051FE0499896807F031
:205E6C00C7FE98B90098069903F024FB04980021816204981021C1770599049801F0ACFF3C
:205E8C00054806F06BFC4FF0FF3003E00498406A00E0002007B000BD9B2F002030100040D7
:205EAC0000B5ADF1140D8DF800003E48006840B19DF800103C4A192000FB0120142105F054
:205ECC00BFFF354801903949002008600720002106F06CFB0820002106F068FB00200390E6
:205EEC0033490398814210DD019805F03BFD2BA20CCA00F06BF902F0C1FF01900398401CD8
:205F0C0003902B4903988142EEDC002002903CE00020039003984CF25031814211DD019821
:205F2C0005F020FD1DA20CCA00F050F902F0A6FF01900398401C039003984CF250318142A6
:205F4C00EDDC0820012106F031FB0020039003984CF25031814211DD019805F003FD0FA203
:205F6C000CCA00F033F902F089FF01900398401C039003984CF250318142EDDC082000215F
:205F8C0006F014FB0298401C02909DF800000299001D8842BCDC94E70000803F0B7A6F0C7F
:205FAC000100F03FEC320020E4DE00001C0B0020E093040010B5ADF1180D019100900198A4
:205FCC00042863D132480390324807F0CFFC029020B102983049C068086007E00398C07F45
:205FEC00400803D303982C49406808602A48006840682A4900780860274800682749406893
:20600C0009680078884210D023480068806960B121480068806904901F48049C00686FF0F8
:20602C00FF0100224FF00073A047022005F0D8FE112000F077FC1A49012008701648006856
:20604C00007C10B11748007810B90E2000F06AFC114800684068806820B90F480068406842
:20606C00C06828B110490020086011480F49086007F038FC0F490020086010480E490860F7
:20608C000F4807F0B9FA192007F0A2FD06B010BD24310020F4310020702F0020D0210840EF
:2060AC00962F0020942F00201C1004400010044051000706181004401410044002000040D4
:2060CC002D49000080B502AFADF1200DADF8123003920291ADF8100006208DF81400FF20EB
:2060EC008DF8150002980078022853D102980299406849684078097800F0FF0001F0FF01F3
:20610C0001EB0021ADF8181039E0388800BBBDF8120040F20711814203DA0D208DF814008E
:20612C003BE002980399BDF81220C06801F012FB0298BDF81210C06800220A5487208DF8B0
:20614C00150000208DF814001E490120086024E00B208DF8140020E03888009001200190AB
:20616C00BDF812300299039ABDF8100001F00AFD8DF8140011E00A208DF814000DE0BDF838
:20618C00180042F60211401AE6D04DF2E661401ABBD0F0E701208DF814009DF81500FF28B3
:2061AC000CD00948006848B107480068006828B10548006801689DF8150088479DF814000D
:2061CC0008B080BDC8320020E00A00202DE9FC4191EA03084CBF4FF000484FF000084FEAAF
:2061EC00C32545EA52554FEAC2264FEA43077F0D11BF45F0004500210020BDE8FC815FF4A5
:20620C00E06E1EF1FF0E774555D04FEAC12343EA50534FEAC0224FEA4104640D11BF43F02D
:20622C00004300210020BDE8FC81744543D0E419A3FB0501A3FB06E7A2FB06631EEB030E94
:20624C0057F1000751F10001A2FB05631EEB060E57F1000751F10001FF1851F10001C019B9
:20626C0051F100014CBF4FF4806E4FF4007E10EB0E0051F1000148BF641C01D44000494160
:20628C005FF44077FF37E41BDEBF00210020BDE8FC8117F58067BC420DD24FEAD02040EA90
:2062AC0041504FEA41014FEA113141EA045141EA0801BDE8FC810020FF21C900C91D090578
:2062CC0051EA0801BDE8FC8110B5ADF1180D019100903A48029007F0D3FC039002988069B2
:2062EC0010F4602F45D002988069400C8DF810009DF81000400803D300208DF810000EE020
:20630C009DF81000800803D301208DF8100006E09DF81000C00802D302208DF810009DF844
:20632C001000401D40B203F05DF89DF81010029A012011318840916981439161039807F0EC
:20634C009BFC9DF81010029800EB8100806898B19DF81010029800EB8100846802989DF8D8
:20636C001010406800224FF00063491D09B2A04702E0039807F080FC0298806928B11048D9
:20638C0007F0CEFB002106F0F7FF0298C07F800811D30298406948B102984469029840681A
:2063AC006FF0010100224FF00043A0470299C87F20F00200C87706B010BDC04624310020B4
:2063CC003C2F00200EB52C482C4905F077FA2C49002008702B494FF6FF70088005F08AF9DF
:2063EC002949087000202A4900900120019027480022002303F046FA0020254900900220AB
:20640C00019024480022002303F03CFA0020204900900420019020480022002303F032FA6B
:20642C001E49042008701E481022002102F0A9FA1C480021102202F0A4FA1B4900200860CC
:20644C001A49002008701A4900200870194907200870194900200870114A0220102104F09D
:20646C00C7F9104A0320102104F0C2F90E4A0420042104F0BDF90EBD4432002048320020AD
:20648C004C320020B4090020263300202C30002095DA000050300020743000204D3200200E
:2064AC006C3200207C320020503200205432002055320020563200205732002000B5ADF1B1
:2064CC004C0D119310920F910E903548007820B9FFF74AF83249012008700F9818B10F98A2
:2064EC000E99486001E0002058E0109818B110980E99886001E0002050E007F0C1FB1290DA
:20650C0028480078002804DC26490878401C087004E0129807F0B0FB00203FE0129807F0AC
:20652C00ABFB119820B909A806F092FE09A8119011980E990068086011980E994068C8605E
:20654C0011980E99007A087411980E99C06848611198006918B111980E99006988610E98A5
:20656C0000217822203002F00CFA684606F0D6FF01208DF818000E9800216A46383007F0FF
:20658C0063FB684606F08FFF0E9806900E98064900226B46703007F043FB0E9813B000BD60
:2065AC008F0900207C2F00207DDA000030B5ADF12C0D079030491CC902A81CC006C980E887
:2065CC0006000798406808900798806809902B480068C1680998006888470998006840F293
:2065EC00F27106F04DFE0998006840F2F27107F0D9F8089A0998089992F83C20006891F8CA
:20660C003D10931002EB5372D2100DEB8202926806F02AFE684607F0D7FA184808991A4B7A
:20662C008A6908990068097F164D53F8213008994468497F099855F821101943089B104D3B
:20664C009B7F006855F823300B430199A0470F49086840F0100008600D49086840F00100D6
:20666C000860099806F056F820B10949086840F4404008600BB030BDA0E00000D001001009
:20668C00DCE0000088E1000024E100002C100040301000407CB50446084602F09FFD344EEF
:2066AC0002461821304605F0CDFC06F051FC40F2FF32002380B22C210090304604F0CEFA0F
:2066CC0007F008F91C210246304605F0BBFC06F031FC02461421304605F0B4FC06F07CFDE5
:2066EC0002461021304605F0ADFC204602F0A0FC02460C21304605F0A5FC204606F054FDDF
:20670C001C4D400040F020002870204606F058FD40F010002870204606F0B4F902462821B9
:20672C00304605F08FFC204606F062FD400040F06000E870204606F067FDC00040F0800044
:20674C0005F8080C204606F06BFD800040F47C40A5F89300204605F08BFC024608213046EF
